:020000040800F2
:1000000060340020A9010008BD340008F530000864
:10001000B9340008F1090008095600080000000082
:10002000000000000000000000000000213800086F
:10003000C10A000800000000E9360008593800082D
:10004000C3010008C3010008C3010008C301000880
:10005000C3010008C3010008C3010008C301000870
:10006000C3010008C3010008C3010008C301000860
:10007000C3010008C3010008C3010008C301000850
:10008000C3010008C3010008C3010008000000000C
:10009000000000000000000000000000C301000894
:1000A000C3010008C3010008C3010008C301000820
:1000B00019390008C3010008C3010008C301000882
:1000C000C3010008C3010008C3010008C301000800
:1000D000C3010008913D0008C301000800000000B2
:1000E000C3010008C3010008C301000800000000AC
:1000F000000000000000000000000000C301000834
:1001000000000000C3010008C3010008C30100088B
:1001100000000000000000000000000000000000DF
:10012000F5090008C3010008C3010008C301000865
:10013000C3010008000000000000000000000000F3
:10014000000000000000000000000000ED34000886
:10015000C3010008C3010008C3010008C30100086F
:10016000C3010008C30100080000000000000000F7
:10017000000000000000000000000000000000007F
:1001800000000000C30100080000000000000000A3
:10019000C3010008DFF80CD000F092FA00480047D5
:1001A0000D57000860340020064880470648004785
:1001B000FEE7FEE7FEE7FEE7FEE7FEE7FEE7FEE717
:1001C000FEE7FEE705390008950100082DE9F05F1C
:1001D0000546002092469B468846064681464024B6
:1001E0001BE0284641464746224600F0A0F8534609
:1001F0005A46C01A914110D311461846224600F0C3
:1002000087F82D1A67EB01084F462246012000218E
:1002100000F07EF817EB00094E41201EA4F1010406
:10022000DFDC484631462A464346BDE8F09F40EAB7
:1002300001039B0703D009E008C9121F08C0042A64
:10024000FAD203E011F8013B00F8013B521EF9D24B
:100250007047D2B201E000F8012B491EFBD2704773
:100260000022F6E710B513460A4604461946FFF782
:10027000F0FF204610BD421C10F8011B0029FBD1E5
:10028000801A704710B5002200E0521C835C8C5C21
:10029000A34201D1002BF8D1D8B2E1B2401A10BD6F
:1002A00030B505460020034600E05B1C934205D2B2
:1002B000EC5CC85C201A01D1002CF6D130BD00F0F6
:1002C000004230F000400AD0C10D01F56071C0F36A
:1002D000160042EA0151C20840071143704700204E
:1002E0000146704730B50B4601460020202201240C
:1002F00009E021FA02F59D4205D303FA02F5491BF4
:1003000004FA02F52844151EA2F10102F1DC30BD09
:10031000202A04DB203A00FA02F1002070479140C5
:10032000C2F1200320FA03F3194390407047202ABA
:1003300004DB203A21FA02F00021704721FA02F38F
:10034000D040C2F1200291400843194670472DE980
:10035000FE4F804681EA0300C00F0C46009021F05A
:10036000004123F00045B8EB0200A94105D2404608
:10037000214690461C460B46024623F0004010439F
:1003800047D0270DC7F30A00C3F30A510290401A61
:10039000019040286BDAC3F3130040F4801B0098EF
:1003A000924620B10023D2EB030A63EB0B0B0198BA
:1003B0005946C0F140025046FFF7AAFF06460D46D7
:1003C00050465946019A00F08DF910EB0800614142
:1003D000002487EA115284EAE7731A4340D0009A56
:1003E00062B3019A012A4FEA075215DC001B61EB48
:1003F00002014FF0004202EA0752CDE90042001C20
:1004000041F5801132462B4600F08DF903B0BDE86E
:10041000F08F40462146F9E7001B61EB0201001C0A
:1004200041F5801300185B412018A2F5001747EB37
:10043000030140EAD570B6196D4111E06D084FEA2D
:10044000360645EAC0754FEA0752001B61EB020110
:10045000001C41F5801149084FEA30000019514154
:1004600032462B4603B0BDE8F04F00F04DB900987E
:10047000012240000023D0EB020263EBE0730098FE
:1004800021464FEAE074B8EB000061EB0401E9E7B4
:1004900083F000435BE781F0004158E72DE9FE4F10
:1004A00081EA030404F0004421F0004100944FF07D
:1004B000000B23F0004350EA01045ED052EA03042B
:1004C0005BD0C3F30A54C1F30A552C44A4F2F334AD
:1004D0000194A0FB0254C1F3130141F48011C3F352
:1004E000130343F4801301FB024400FB034E840A10
:1004F000970A44EA815447EA8357A4FB07680295A8
:100500008D0A05FB07854FEA932C04FB0C54270545
:10051000029D4FEA065847EA1637B5EB08056EEB21
:10052000070C870E920E47EA811742EA8312A7FB57
:100530000201B6EB0B0164EB00042B0D43EA0C3314
:100540005E1844EB1C50DA465146E7FB0201C5F346
:1005500013044FEA0B3343EA14534FEA0432019C6D
:1005600043EA0603A4F10C040294009CCDE900B414
:1005700000F0D9F803B0BDE8F08F00200146F9E79C
:100580002DE9F04D81EA030404F0004B21F0004511
:1005900014464FF0000A23F0004150EA050220D033
:1005A00054EA01021DD0C5F30A570246C5F31303EE
:1005B000C1F31300C1F30A5640F4801543F48013CD
:1005C000A7EB0608101BD64608F2FD3873EB0500B2
:1005D00002D308F1010801E092185B41B8F1000F65
:1005E00003DA00200146BDE8F08D00204FF48011B1
:1005F000064684460EE0171B73EB050705D3121B56
:1006000063EB050306434CEA010C49084FEA30004E
:1006100092185B4150EA0107EDD152EA030012D073
:1006200082EA040083EA0501084305D0101BAB41B0
:1006300006D20122002306E000224FF0004302E030
:100640006FF0010253101AEB06004CEB085110EB4F
:100650000A0041EB0B01BDE8F04D00F055B8C1F3C5
:100660000A52C1F3130140F2FF3341F480119A4260
:1006700002DA00200146704740F233439A42A2F268
:10068000334202DC5242FFF752BEFFF741BE000088
:1006900030B5041E71F1000404DB4FF00044404209
:1006A00064EB0101141E73F1000405DB1C464FF0DE
:1006B0000043524263EB0403994208BF904230BDAD
:1006C000064C074D06E0E06840F0010394E807009F
:1006D00098471034AC42F6D3FFF760FDCC92000887
:1006E000EC920008202A06DBCB17203A41FA02F0F0
:1006F00043EAE07306E041FA02F3D040C2F120027F
:10070000914008431946704710B5141E73F1000458
:1007100008DA401C41F1000192185B411A4301D1F3
:1007200020F0010010BD2DE9F04D92469B4611B11D
:10073000B1FA81F202E0B0FA80F220329046FFF77F
:10074000E7FD04460F4640EA0A0041EA0B01534622
:100750005A46084313D0114653EA010019D0C8F194
:1007600040025046FFF7E3FD05460E465046594607
:100770004246FFF7CDFD084305D0012004E02046A6
:100780003946BDE8F08D0020054346EAE0762C436B
:1007900037430A986305E40AA0EB08000022FD0A2B
:1007A00044EA47540A3002D500200146E9E7010532
:1007B00010196941DDE9084500196941BDE8F04DAE
:1007C000A2E7000080B50146806B036C026C13F059
:1007D000500F06D0D2060FD4806BC26C08469047EB
:1007E00080BD42F40071016401688A6812F0405FC4
:1007F00005D000F00BFA80BD00F074FA80BD027ED7
:10080000002AF6D1CA6A12F4700F02D08A68520523
:10081000EFD44A6822F020024A60016C21F4807112
:100820000164016CC904E4D4016C41F0010101646C
:1008300000F0ECF980BD000080B5806B40210164C0
:10084000416C41F00401416400F04CFA80BD0000AD
:1008500080B5806B00F044FA80BD000010B542F214
:100860000432C4F20102116821F440311160D2F85F
:1008700000C090E80A4043EA0C03C46813604A6869
:1008800022F480724A6002694B6843EA02224A609D
:100890004A6822F040724A604A6842EA0E024A60A0
:1008A0008A6822F400628A608A6822438A60826AC7
:1008B0008B68012423F070638B608B68C0F6007432
:1008C000A24202D123F0405208E01A438A608A68AB
:1008D00022F040528A60C26A8B681A438A608A6832
:1008E00022F002028A608A68037E90F8204042EA81
:1008F00043028A604A6884B142F400624A604A68EE
:100900004EF2000322F460424A60426ACFF6FF735F
:100910004C6803EB4232224301E022F400624A6059
:10092000CA6A40F2000C22F47002CA62C3694269CA
:10093000CFF6F07CCC6A0CEB03532343CB628B687D
:1009400023F400738B6090F830008B6843EA4020FA
:100950008860886820F480608860886840EA822027
:10096000886010BD80B542F2E84041F65071C2F295
:100970000000C2F200014FF4B07200F037FA80BDFF
:10098000002070470020704700207047002070470B
:10099000002070470020704770B50546D0F8BC02B3
:1009A0000C4641F6E431461830464021FFF758FC2A
:1009B000E2882846314603F09DFB70BDF0B581B05A
:1009C000CA8882B1D0F8BC5241F6E336AF190C4662
:1009D000791C03F075FB0120A855A079617987F88F
:1009E000410087F8421001B0F0BD000000207047C0
:1009F000FEE7000080B542F23050C2F2000000F085
:100A0000DBFA80BDD0F800C06FF00F024AF6AB23CE
:100A100052FA8CF2CAF6AA230146A2FB033000095F
:100A200005A31B5C40F2FF302CEA00005F2A88BF60
:100A30000430C1E9160370470006101600061016B0
:100A40008269816AB2F5005F06D06AB9022912D0C4
:100A5000012914D0D1B90EE0032917D8DFE801F03D
:100A6000020B020F0120704703293CBF0120704791
:100A70001CBF00207047C06AC0F300607047C06AA6
:100A8000A0F1C070B0FA80F04009704700207047B4
:100A900080B5D0F800C0D0F808E0DCF80000BEF166
:100AA000400F20F48020CCF800000846CCF8043039
:100AB00004BF10460A46CCF80800CCF80C2080BDD4
:100AC00070470000EFF3108072B600BFFEE7000031
:100AD000B0B547F61021C1F6FF7108688A68801822
:100AE00008BFB0BD40F20015C2F200054C68A91C59
:100AF000082202F001FB05F112012046042202F057
:100B0000FBFAB0BD70B581B00022009290F83C2095
:100B1000012A01D1022156E00E6801221FFA86FC4B
:100B200080F83C204FEA4C0212FA86F302680A2E43
:100B300032BF10321E3B0C324FF0070E15680EFA12
:100B400003F4A54315608D68146805FA03F3234385
:100B500013604968062906D8026801EB810105394E
:100B600002F134030AE00C2901EB8101026887BF1E
:100B7000413902F12C03233902F130031F221C6892
:100B80008A4024EA02021A601A680CFA01F1114341
:100B900042F2043E1960C4F2010E0168122EAEF555
:100BA000417208BF914205D1DEF8003043F4800362
:100BB000CEF8003026F00103102B08BF914205D07B
:100BC000002180F83C10084601B070BDDEF800102E
:100BD000102E41F40001CEF80010F1D140F22001B6
:100BE000C2F2000109684DF68362C4F21B32A1FB18
:100BF0000212910C01EB8101490000BF00910099A4
:100C00000029DDD000990139F8E70000F0B542F283
:100C10001820C2F20000D0F8BC0241F6E231415C7B
:100C20002C2242F2142C11FB020041F68A31C2F24E
:100C3000000C0144DCF8002041F650704EF2565E84
:100C400042F654540023C2F20000CFF6FF7EC2F2F7
:100C5000000404E00133162B00F1200037D00025FA
:100C60006FF001068719B7F9027002361E2E3D4457
:100C7000F8D1EE1705EB96750EEBA506062A21F8BE
:100C80001360E7D8AD10DFE802F0091B0C11160461
:100C90001F0004EB4306A6F8DC50DBE724F81350F2
:100CA000D8E704EB4306A6F85850D3E704EB430615
:100CB000A6F88450CEE704EB4306A6F8B050C9E787
:100CC00004EB4306B585C5E7112BE2D9C2E7DCF892
:100CD00000000130C11F18BF0146CCF80010F0BD64
:100CE0007047000070470000B0B510B30446006CB8
:100CF00030B9204600F020F80020606484F83C0001
:100D0000206C0125C0060FD4206C41F202118843EB
:100D1000023020642046FFF7A1FD00206064206CB3
:100D200065F3010000252064002084F83C0028467B
:100D3000B0BD0120B0BD000070B586B0044642F2DF
:100D400000002168C4F20100002681420596CDE929
:100D500003660296019601D006B070BD43F63001DD
:100D60000096C4F202014A6900F5604042F48072C4
:100D70004A614A6902F480720092009A00960A68F9
:100D800042F001020A60096801F001010091009936
:100D9000042101910321CDE9021601A900F080FA96
:100DA00042F2305546F21040C2F20005C4F2020091
:100DB0004FF48061C5E9000605F110004FF40062B0
:100DC0004FF400534FF4807C80E80E102846C5E9AC
:100DD0000266C5E9086600F0B5F9002818BFFFF7FC
:100DE00071FEA563AC6306B070BD000070B582B043
:100DF00004460020019094F83C00012802D1022012
:100E000002B070BD13460A460120216884F83C00F8
:100E10008868C00718D188684DF6836540F00100E6
:100E2000886040F22000C2F200000068C4F21B3566
:100E3000A0FB0505A80C00EB400000BF0190019845
:100E400010B101980138F9E78868C00503D58868B2
:100E500020F4807088608D68206CED0707D140F029
:100E600010002064606C40F0010060644FE040F2CC
:100E70000175A84300F5807020644868400504D5DA
:100E8000206C012565F30D302064256C0020ED04F5
:100E90004FF0000544BF656C25F00605656484F8D5
:100EA0003C00A06B40F2C57540F6510CC0F6000541
:100EB000C0F6000CC0E90F5C40F63905C0F600052D
:100EC000C5646FF022050D604D6842F2000645F0E2
:100ED00080654D608D68C4F2010645F480758D60B3
:100EE0004C3100F097F9D6F804132068C90606D0F3
:100EF000B0420CD1B16811F0405F08D103E08168C5
:100F000011F0405F03D1816841F080418160002091
:100F100002B070BD70B5866D044600F09BFA94F87F
:100F20003510022925D105462068216C026822F07F
:100F300016020260426922F08002426109B9A16C86
:100F400019B1016821F008010160016821F0010177
:100F5000016000BF20680068C0070ED000F07AFA78
:100F6000401B0628F6D320206065032084F8350056
:100F70000CE080206065012008E0E06D3F2101FA6F
:100F800000F0B060012084F835000020002184F8D2
:100F9000341070BD90F83510022909D1052180F870
:100FA00035100068016821F00101016000207047E0
:100FB0008021416501207047F0B581B004460020D2
:100FC000009040F22000C2F200000268D4E91660EE
:100FD00048F2B51337680821C1F64E3381403942D3
:100FE000A2FB03250CD0226813685B0708D51368A1
:100FF00023F004031360B160616D41F0010161658C
:1010000001218140394208D022685269120604D574
:10101000B160616D41F00201616504218140394296
:1010200008D022681268920704D5B160616D41F062
:101030000401616510218140394215D020680268A1
:10104000120711D5B16002680168520306D4C905C0
:1010500006D4016821F00801016001E0080342D4D0
:10106000216C09B120468847E16D202000FA01F289
:101070003A4244D020680368DB0640D5B26094F859
:1010800035300268052B1ED122F01602026042693B
:1010900022F080024261226C0AB9A26C1AB1026885
:1010A00022F0080202603F208840B060012084F8EE
:1010B0003500216D0020002984F8340040D02046FE
:1010C000884701B0F0BD0168520310D4C90512D49D
:1010D000016821F010010160012084F83500002032
:1010E00084F8340007E0A16C0029BBD1BCE70803F9
:1010F00001D4616C00E0E16B09B120468847606D66
:10110000F0B1606DC00717D0052084F83500206865
:10111000A90A026822F00102026000BF009A0132AF
:101120008A42009202D80268D207F7D1012084F8DF
:101130003500002084F83400E16C09B1204688476E
:1011400001B0F0BD2DE9F041044600F083F9C4B1CF
:101150000546022084F835000020216884F8340018
:10116000086820F00100086026683068C0070BD0CE
:1011700000F070F9401B0528F6D903212022032036
:1011800042E00120BDE8F081306848F23F01CFF233
:101190001001251D00EA010C2ECDD4E9050E41EA0F
:1011A0000C01114319432943D4E90778084340EA65
:1011B0000E01606A3943042841EA080103D1D4E9E9
:1011C0000B231143194331607169042821F0070191
:1011D00041EA00050CD1D4E90A1045EA010538B10D
:1011E0002046FFF72DFC18B10121402201200BE021
:1011F00020467561FFF706FCE16D3F2202FA01F11E
:101200008160002201210020626584F83510BDE86C
:10121000F0810000B0B5044690F83400012828D0D1
:10122000012084F83400A56D94F8350001281DD103
:10123000022084F83500002060652046FFF728FC76
:10124000E26D3F23206803FA02F2216CAA60026873
:1012500042F01602026019B1016841F00801016014
:10126000016841F0010101600020B0BD002084F858
:1012700034000220B0BD0000B0B5044600F0EAF82A
:10128000054640F21A10C2F200000078611C18BF37
:10129000044400BF00F0DEF8401BA042FAD3B0BD0A
:1012A0002DE9F04F83B000F13E4202F1FF724FEAA8
:1012B000B22241F200070192C4F2020707224FF066
:1012C000010E00254FF0000A4FF00008B84208BF99
:1012D000042200920AE000BF08F101080AF1040AA2
:1012E000B8F1100F05F1020500F0A2800C680EFAAB
:1012F00008FB14EA0B09EFD04C6804F0030CACF1C6
:10130000010EBEF1010F11D80322876802FA05F61B
:10131000CA68B743AA403A4382604268C4F30017E0
:1013200022EA0B0207FA08F73A434260BCF1030FC6
:101330001CD0C26803238E6803FA05F7BA4306FA85
:1013400005F73A43BCF1020FC2600FD16FF0030200
:1013500002EA580202440AF01C060F23176A03FA35
:1013600006F40B69A743B3403B43136202680323AF
:101370004F68AB409A4307F00303AB401A4317F49E
:10138000403F4FF0010E0260A6D0002243F6440316
:101390000292C4F202031A6843F6004442F4804207
:1013A0001A601A68C4F2010402F480420292029A9E
:1013B00028F003024FF6084B2244CFF6FF7B52F889
:1013C0000B300AF00C070F26BE4023EA060C019BE7
:1013D000009E042B38BF1E4606FA07F747EA0C03A7
:1013E00042F80B3022684B6842EA0907DE0358BF17
:1013F00022EA0907276062689E0342EA090758BF8C
:1014000022EA09076760A268DE0242EA090758BFBC
:1014100022EA0907A76043F60C47C4F201073A68BD
:101420009B0242EA090358BF22EA09033B6053E7E3
:1014300003B0BDE8F08F0000426902EA0103914366
:1014400041EA034181617047002A08BF09048161B4
:101450007047000043F25C00C2F200000068704771
:1014600040F21A1043F25C01C2F20000C2F2000125
:1014700000780A68104408607047000080B543F6A1
:101480000040C4F20200016841F40071016001688B
:1014900041F480610160016841F4807101600320C2
:1014A00000F060F80F2000F005F800F02BF80020A5
:1014B00080BD0000B0B540F21A12C2F2000240F244
:1014C00020011278C2F200014FF47A730968B3FB6D
:1014D000F2F20446B1FBF2F1084601F063F90F2C79
:1014E0004FF001050CD858B94FF0FF3021460022CB
:1014F000002500F027F840F21C10C2F20000046042
:101500002846B0BD82B0002043F640010190C4F2ED
:1015100002014A6842F480424A604A6802F480420A
:101520000192019A0090086840F0805008600868B5
:1015300000F080500090009802B0704780B504F031
:101540008BF880BD70B514460D46064604F094F83D
:101550002946224601F0B4FF0146304604F094F8D3
:1015600070BD000080B504F0A1F880BD7047000098
:10157000026800205162704710B5D0F800C0DCF856
:101580002400D9B1DCF82830B1F1010E00EB13438F
:101590000CD00021002000BF0CEB8101D1F80441E8
:1015A0000130C1B28E4503EB1443F5D843EA024043
:1015B0000CEB8E01C1F80401002010BD40EA02408E
:1015C000CCF82800002010BD80B5D0F8040402F04B
:1015D000C1FF80BD80B5C1EBC102D0F8043400EB7F
:1015E0008200826C184602F02BFF80BD80B5C1EBF3
:1015F000C102D0F8043400EB8200D0F8082218466B
:1016000002F072FF80BD000080B5D0F8040402F043
:10161000A3FF80BD10B50446080601F00F00C0EB23
:10162000C00104EB810205D402F5FE71002382F8AB
:10163000FD3104E0012302F13C0182F83D3094F8D1
:10164000BC230870012A04BF022010BD20680122BB
:1016500084F8BC2303F04EFB002084F8BC0310BDCB
:10166000B0B54268044601F00F00904284BF0120EB
:10167000B0BD090609D4C0EBC00104EB810202F53C
:10168000FE71002382F8FD3108E0C0EBC00104EBDD
:101690008102012302F13C0182F83D3094F8BC2321
:1016A0000025012A8D70087004BF0220B0BD20689B
:1016B000012284F8BC2303F0EBFC284684F8BC53D9
:1016C000B0BD000010B5044690F8BC03012804BF6B
:1016D000022010BD206801220B0684F8BC2302D42E
:1016E00003F008FE03E001F00F0103F01BFE0020F1
:1016F00084F8BC0310BD000001F00F01C1EBC10173
:1017000000EB8100D0F8140270470000B0B5054628
:10171000080601F00F00C0EBC00105EB810C05D4F9
:101720000CF5FE7100248CF8FD4104E001240CF15D
:101730003C018CF83D404C780870002C8A60CB70DE
:1017400018BFC880022B04BF0020087195F8BC03A5
:10175000012804BF0220B0BD2868012285F8BC23FF
:1017600003F00AFA002085F8BC03B0BD10B501F003
:101770000F0CCCEBCC0100EB81044FF0000EC4F851
:1017800014E284F8FDE1D0F810E0C4F80822C4F8AF
:101790001032BEF1010F84F8FCC108BFC4F80C225E
:1017A000006804F5FE715FFA8EF2BCF1000F03D001
:1017B00003F0BEFC002010BD03F0BEFB002010BDF6
:1017C000B0B50446406801F00F05854284BF012092
:1017D000B0BD080609D4C1EBC10004EB800000F5E0
:1017E000FE71002280F8FD2108E0C5EBC50004EB86
:1017F0008000012200F13C0180F83D2094F8BC03F8
:10180000012201288A700D7004BF0220B0BD20683B
:1018100084F8BC2303F064FC2DB92068217C04F516
:10182000717203F007FC002084F8BC03B0BD000017
:10183000B0B501F00F0CCCEBCC0100EB81052946D3
:1018400001F83CCF0024D0F810E08C6101244C70EA
:10185000CA60BEF1010F4B6108BFEA6400685FFA1D
:101860008EF2BCF1000F03D003F062FC0020B0BD8B
:1018700003F062FB0020B0BD2DE9F04F81B0D0F83D
:1018800000908246484603F073FD10B101B0BDE8F8
:10189000F08FDAF8000003F099FD0028F6D0DAF8AE
:1018A000000003F093FD800705D5DAF800004169D8
:1018B00001F002014161DAF8000003F087FDC00683
:1018C00041D5DAF80000816921F010018161D9F871
:1018D0002040C4F34340062804F00F051CD0022822
:1018E0002BD147F6F070044027D0C5EBC5000AEBBA
:1018F0008005D5F808122209484603F06BFDD5F89B
:101900000802D5F8141200EB1410C5F8080201EB18
:101910001410C5F8140210E00AF571714846082247
:1019200003F058FDC5EBC5000AEB8000D0F8141297
:10193000C4F30A121144C0F81412DAF800008169E5
:1019400041F010018161DAF8000003F03FFD00036F
:101950003CD5DAF8000003F017FDB8B3064609F5E8
:1019600030654FF000084FF0010B002715E000BF75
:10197000E00644BF1020A860A00644BF2020A86055
:10198000A00444BF4FF40050A8600137B8EB560FD5
:101990004FEA560605F1200518D0F007F5D0DAF821
:1019A0000000F9B203F00AFD0446C00705D0504616
:1019B0003946C5F808B001F0C7FD2007D8D5082082
:1019C000A8605046394601F099FDD1E7DAF80000E9
:1019D00003F0FCFC400364D5DAF8000003F0CCFC13
:1019E00000285ED006460AF5717009F510640AF108
:1019F00044080025002700900AE000BF0137B5EB3E
:101A0000560F4FEA560604F1200408F11C0848D08E
:101A1000F007F3D0DAF800005FFA87FB594603F0CD
:101A2000BBFC0546C00723D007F00F00D9F83418D7
:101A3000012202FA00F021EA0000C9F83408A2608D
:101A4000DAF8100001280FD1D8E900010844C8F8DD
:101A500004004FB9D8F80C0030B9DAF80000009A49
:101A6000012103F0E7FA00BF50465946FFF7B2FDE7
:101A7000280744BF0820A060E80644BF1020A060EB
:101A8000680644BF4020A060A80744BF0220A060B1
:101A900028064FF00005B1D55046394601F0BCFD8F
:101AA000ACE7DAF8000003F091FCB0F1FF3F1ADC7C
:101AB000D9F8040820F00100C9F804089AF8F403E2
:101AC000012807D100208AF8F40350460021FFF7CF
:101AD0004DFD02E0504600F0FDF9DAF800004169E2
:101AE00001F000414161DAF8000003F06FFC0005ED
:101AF0000CD5D9F80808C00702D0504600F034FAD7
:101B0000DAF80000416901F400614161DAF800008F
:101B100003F05CFCC00460D5D9F80408102120F063
:101B20000100C9F80408DAF8000009F5006403F0C0
:101B3000F9FBDAF8040018B3DAF8041009F51060BC
:101B400000224FF67F3300BF83600768013227F41D
:101B50000017076007688A4247F000670760C0F80F
:101B60000832D0F8007227F40017C0F80072D0F8DD
:101B7000007247F00067C0F8007200F12000E3D364
:101B8000E06940F00110E061DAF8300040B1D4F8CB
:101B9000840040F00B00C4F8840004F1440006E027
:101BA000606942F22B010843606104F11000016892
:101BB0000AF5717241F00B010160206820F4FE60AB
:101BC0002060DAF800009AF8101003F033FADAF81F
:101BD0000000416901F480514161DAF8000003F02E
:101BE000F5FB80041CD5DAF8000003F011F8DAF8F0
:101BF000000003F0AFFBDAF80040CAF80C0000F078
:101C00007DFA9AF80C200146204603F057FC504616
:101C100000F04EF9DAF80000416901F40051416129
:101C2000DAF8000003F0D2FB000708D5504600F0B8
:101C300057F9DAF80000416901F008014161DAF86A
:101C4000000003F0C3FBC00209D55046002100F09C
:101C50003DF8DAF80000416901F480114161DAF8D9
:101C6000000003F0B3FB800209D55046002100F0CC
:101C700033F8DAF80000416901F400114161DAF843
:101C8000000003F0A3FB400008D55046FFF79CFC82
:101C9000DAF80000416901F080414161DAF80000A2
:101CA00003F094FB40077FF5F1ADDAF800004468DB
:101CB000600702D55046FFF7A7FCDAF8000041683C
:101CC0002143416001B0BDE8F08F000080B5D0F83D
:101CD000040402F0A3FC80BD80B5D0F8040402F037
:101CE000ADFC80BD2DE9F04F8BB098B3044605687C
:101CF00090F8BD0328B9002084F8BC03204600F00A
:101D000093F8032084F8BD03E86BC0055CBF002096
:101D10002061206803F008F9206804F11C0A0A9089
:101D2000D4E90C5004F1040E9AE8C0079EE80E585E
:101D3000CDE9085003A880E8C0030A988DE8005850
:101D4000CDF81CA002F074FF30B1022084F8BD036E
:101D5000012564E0012562E020680021002503F0F0
:101D60005FFB6168C1B1616801200023002200BFF0
:101D7000C3EBC30304EB830787F83C20D3B20132E3
:101D8000A7F84230D3B2994287F83D0087F83F5018
:101D9000C7E911553D65EBD8A1B100200023002211
:101DA000C3EBC30304EB830787F8FC210132D3B2F2
:101DB000994287F8FD0187F8FF01C7E98100C7F85C
:101DC0001002EDD8A06822680A90D4E90C5004F102
:101DD000140E04F1240AD4E903379EE840589AE827
:101DE0000007CDE9085002A880E8005810460A9A7A
:101DF000CDE90076CDE90589CDF81CA002F0E4FF1D
:101E000020B1022084F8BD03012508E0002501204F
:101E100084F8385084F8BD03206802F0C5FF2846D6
:101E20000BB0BDE8F08F0000B0B586B000680024AC
:101E3000B0F1A04F0594CDE903440294019401D080
:101E400006B0B0BD43F630050094C4F20205286820
:101E500001A940F001002860286800F0010000900E
:101E600000984FF4C05001900220CDE902040320F5
:101E700004900A2005900020C4F20200FFF710FA37
:101E80006868002140F08000686000946869002262
:101E900040F480406861686900F4804000900098D8
:101EA0004320FFF74FFB4320FFF748FB06B0B0BDD0
:101EB00010B50446C068022818BFFEF703FED4F828
:101EC0000404012102F02AFCD4F8040402F0DAFB35
:101ED00010BD000080B5D0F8040402F005FC80BD00
:101EE00080B5D0F8040402F009FC80BD10B50446AA
:101EF00090F8BC03012804BF022010BD012084F823
:101F0000BC0384F83810206803F0BEFA002084F87F
:101F1000BC0310BD80B5D0F8042400F571711046E3
:101F200002F008FC80BD000010B5044690F8BC0328
:101F3000012804BF022010BDA16A206801220129E6
:101F400084F8BC2306D1A169012903D0816B41F437
:101F50008031816303F0C6F9206802F015FF00208C
:101F600084F8BC0310BD000010B50446D0F804048A
:101F700002F01CFC2068D0F8001E41F00101C0F8FE
:101F8000001E206A002808BF10BD4EF61050CEF289
:101F90000000016841F00601016010BD2DE9F0412B
:101FA000002800F08B8043F60808C4F202080446BB
:101FB000D8F8F8030D4600F00700884207D288F8E9
:101FC000F853D8F8F80300F00700A84276D120684B
:101FD000810717D5410705D5D8F8001041F4E05125
:101FE000C8F80010010705D5D8F8001041F4604189
:101FF000C8F80010D8F80010A26821F0F0011143D1
:10200000C8F80010C0073FD1D8F8F80300F0070067
:10201000A84207D988F8F853D8F8F80300F0070069
:10202000A8424BD12068410707D5D8F80010E268D4
:1020300021F4E0511143C8F80010000708D5D8F882
:102040000000216920F4604040EAC100C8F80000A7
:1020500000F07EF8D8F8001048F29072C1F3031136
:10206000C0F60002515C40F2200220FA01F140F279
:102070001C10C2F200000068C2F200021160FFF7FB
:1020800019FA0020BDE8F0816068811E022907D29C
:1020900058F8081C89015CBF0120BDE8F08110E000
:1020A000012807D158F8081C89035CBF0120BDE84E
:1020B000F08106E058F8081C890702D40120BDE829
:1020C000F081D8F8001021F003010843C8F800009F
:1020D000FFF7C0F9064641F2883700BFD8F8000084
:1020E000616800F00C00B0EB810F8DD0FFF7B2F902
:1020F000801BB842F2D90320BDE8F08140F22000F5
:10210000C2F200000068704780B5FFF7F7FF43F6A2
:102110000801C4F20201096848F2A072C1F38221E9
:10212000C0F60002515CC84080BD000080B5FFF7DA
:10213000E5FF43F60801C4F20201096848F2A07203
:10214000C1F34231C0F60002515CC84080BD0000BE
:1021500010B543F60404C4F20204606800F00C00F9
:1021600008280AD0042819BF42F20040C0F2F40047
:1021700047F64000C0F27D1010BD2068216823683A
:10218000490247F64001C0F27D1100F03F02C3F35F
:1021900088105CBF42F20041C0F2F401A1FB0001D3
:1021A0000023FEF713F821680222C1F3014102EB7C
:1021B0004101B0FBF1F010BD2DE9F04182B00028E3
:1021C00000F0A2800446007843F60006C007C4F27F
:1021D000020643D0B06800F00C00042805D1306836
:1021E00080033BD56068C8BB8EE0B06800F00C008F
:1021F000082802D170684002F1D46568B5F5A02FB7
:102200000AD0B5F5803F0BD0306820F480303060C4
:10221000306820F4802006E0306840F48020306090
:10222000306840F480303060FFF714F9002D054627
:1022300011D000BF3068800310D4FFF70BF9401BAA
:102240006428F7D922E100BFFFF704F9401B642896
:102250004FF0030055D830688003F5D4207880070C
:102260001AD5B06810F00C0F09D0B06800F00C005F
:10227000082840F08A807068400200F1868030684B
:10228000800702D5E06801283ED13068216920F03E
:10229000F80040EAC10030602078000738D4207888
:1022A00040074CD4A5695DB3B06800F00C00082865
:1022B00040F09E80012D27D07068E16900F4800213
:1022C0008A4221D1216A00F03F028A421CD147F69E
:1022D000C071626A0140B1EB821F15D1A26A00236E
:1022E000CFF6FF7303EBC23200F440316FF30F02FD
:1022F000914209D1E16A00F07060B0EB016F03D147
:10230000002002B0BDE8F081012002B0BDE8F081FC
:102310006069002840F20000C4F2472057D0012134
:10232000C0F8801EFFF796F8054600BF706F800763
:10233000B5D4FFF78FF8401B0228F7D9A6E0306C20
:1023400010F080580AD100200190306C40F080508D
:102350003064306C00F080500190019847F2000723
:10236000C4F200073868C00524D4386840F480708F
:102370003860FFF76FF805463868C0051AD4FFF7D4
:1023800069F8401B0228F7D980E0E068002851D0A6
:102390000020C4F2472001210160FFF75BF80546E9
:1023A000306880073FF571AFFFF754F8401B0228F3
:1023B000F6D96BE0A568052D50D0012D52D0306FB5
:1023C00020F001003067306F20F004004DE0002164
:1023D000C0F8801EFFF73EF8054600BF706F80070B
:1023E0007FF55DAFFFF736F8401B0228F6D94DE0C8
:1023F0000027C4F2472700203866FFF72BF8022D8C
:1024000005460BD13068800158D5FFF723F8401BF3
:1024100002284FF00300F5D973E700BF3068800150
:102420007FF56EAFFFF716F8401B02284FF0030050
:10243000F4D966E70020C4F2472000210160FFF7CD
:1024400009F80546306880077FF526AFFFF702F8E8
:10245000401B02284FF00300F4D952E7306F40F0E0
:1024600004003067306F40F001003067FEF7F2FF84
:10247000002D054641F2883714D000BF306F800729
:1024800013D4FEF7E7FF401BB842F7D9032002B090
:10249000BDE8F081FEF7DEFF401BB8424FF00300BD
:1024A0003FF62FAF306F8007F4D4B8F1000F7FF400
:1024B000F9AE306C20F080503064F3E604F11C0576
:1024C0002FCD08430021CFF6FF7140EA821001EBC7
:1024D000C3316FF30F0140EA0560084370600120CB
:1024E0003866FEF7B7FF0446306880013FF508AF55
:1024F000FEF7B0FF001B02284FF00300F4D900E7FD
:1025000070B538B10446406A30B10020206104F152
:10251000140007E0012070BD6068B0F5827F03D031
:1025200004F11C00002101600026A66294F851000D
:1025300020B9204684F8506000F03CF8022084F86E
:10254000510094E80F0001F48271056802F404421E
:1025500025F040050560114403F40062236911442D
:1025600003F002026369114403F00102A369E56903
:10257000114403F40072114405F03802256A114435
:1025800005F08002A56A114305F400521143016071
:10259000626A042101EA134102F010021144416011
:1025A000C16921F40061C1610120666584F85100B0
:1025B000304670BD80B586B043F200010068C4F2B9
:1025C0000101002288420592CDE903220292019284
:1025D00001D006B080BD43F630000092C4F2020084
:1025E000436943F480534361436903F48053009388
:1025F000009B0092036843F001030360006800F051
:10260000010000900098A02001900220CDE9020274
:10261000032004900520059001F5504001A9FEF724
:102620003FFE06B080BD00002DE9F04381B00446B6
:1026300090F85000012803D1022001B0BDE8F083DA
:102640004FF001091D4616460F4684F85090FEF7DC
:1026500001FF94F8511001295DD18046002F4FF001
:10266000010018BF002E00F09580032084F851006F
:10267000002060652763A686E686A063A087E087C2
:10268000A168C4E91000B1F5004F08D120680168C5
:1026900021F040010160016841F48041016020683F
:1026A0000168490603D4016841F040010160616896
:1026B000731EE268B1FA81F1B3FA83F349095B0949
:1026C000B2F5006F41EA030127D139B1216B0988C6
:1026D000C160B81C2063E08E0138E086E08E0028DF
:1026E00041D06E1C0AE000BF216B31F8022BC260A2
:1026F0002163E08E0138E086E08EA0B32068816817
:102700008907F1D4FEF7A6FE002EF5D0A0EB080055
:10271000A842F1D325E002203CE039B139780173B9
:10272000206B01302063E08E0138E086E08ED0B16E
:102730006E1C0AE0216B09780173206B0130206365
:10274000E08E0138E086E08E68B1206881688907F4
:10275000F0D4FEF77FFE002EF5D0A0EB0800A842D3
:10276000F1D3032016E020462946424600F0BEFF82
:1027700000281CBF20206065A06838B900200090A8
:102780002068C1680091806800900098606D002802
:1027900018BF0120002184F8519084F8501001B036
:1027A000BDE8F08380B501F03FF880BD70470000C0
:1027B0007047000010B590F83C20012A4FF002024B
:1027C00040D0012380F83C3080F83D200268D2F8E8
:1027D00004E0D2F808C00C682EF07003234340F6E2
:1027E000FF34C4F20004A24253600FDCB2F1804F08
:1027F0001DD040F20043C4F200039A4217D040F6C5
:102800000003C4F200039A4211D015E040F60043E1
:10281000C4F200039A420AD044F20003C4F2010356
:102820009A4204D00023C4F201039A4204D14968B9
:102830002CF08003194391600121002280F83D10A3
:1028400080F83C20104610BD002804BF01207047CE
:1028500010B5044690F83D0028B9002084F83C00EB
:10286000204600F01FF8022084F83D002068211D5A
:1028700001F05AF8012084F8460084F83E0084F8FC
:102880003F0084F8400084F8410084F8420084F856
:10289000430084F8440084F8450084F83D0000209B
:1028A00010BD000080B582B0006840F20041C4F263
:1028B000000188421BD0B0F1804F27D10020019049
:1028C00043F64000C4F202000168002241F0010119
:1028D00001600068002100F00100019001981C20B7
:1028E000FEF730FE1C20FEF729FE02B080BD00205E
:1028F000009043F64000C4F20200016841F002017A
:102900000160006800F002000090009802B080BDF5
:1029100090F83D1001291CBF01207047022180F86A
:102920003D10006840F6FF31C4F2000188420FDC20
:10293000B0F1804F1DD040F20041C4F20001884246
:1029400017D040F60001C4F20001884211D017E010
:1029500040F60041C4F2000188420AD044F200016E
:10296000C4F20101884204D00021C4F2010188426E
:1029700006D1816801F00701062904BF00207047D5
:10298000016841F0010101600020704790F83D109E
:1029900001291CBF01207047022180F83D1000680A
:1029A00040F6FF32C168C4F20002904241F00101DA
:1029B000C1600FDCB0F1804F1DD040F20041C4F285
:1029C0000001884217D040F60001C4F2000188429D
:1029D00011D017E040F60041C4F2000188420AD04D
:1029E00044F20001C4F20101884204D00021C4F283
:1029F0000101884206D1816801F00701062904BF60
:102A000000207047016841F001010160002070471B
:102A100010B5044690F83C0001284FF0020008BFB2
:102A200010BD012284F83C2084F83D0020684FF658
:102A3000777382689A4382600A684F2A0FDC1F2AE4
:102A400022DD202A23D0302A21D0402A4DD14B68C4
:102A5000CA68194600F0EAFF206840213BE06F2A6F
:102A600017DDB2F5005F20D0B2F5805F2AD0702A62
:102A70003BD1D1E9012CCB68614600F0C3FF20684F
:102A8000816841F077011AE00AB1102A2DD1114670
:102A900021E0502A18D0602A27D14B68CA6819460D
:102AA00000F0D6FF2068602115E0D1E9012CCB6849
:102AB000614600F0A7FF2068816841F48041816091
:102AC00000200BE0002009E04B68CA68194600F0BE
:102AD000ADFF2068502100F0A1FF0020012184F803
:102AE0003D10002184F83C1010BD0120F6E70000E5
:102AF0007047000010B5044600680169890744BFAB
:102B0000C1685FEA817138D420680169490744BF10
:102B1000C1685FEA41713CD420680169090744BF7C
:102B2000C1685FEA017141D420680169C90644BFE8
:102B3000C1685FEAC16145D420680169C9071CBF4B
:102B4000C1685FEAC1714AD120680169090644BFC2
:102B5000C1685FEA016149D420680169490644BF40
:102B6000C1685FEA416148D420680169890644BFB1
:102B7000C1685FEA816147D410BD6FF00201016155
:102B8000012121778069800745D02046FFF7B0FFFB
:102B900047E06FF00401016102212177806910F4A0
:102BA000407F41D02046FFF7A3FF43E06FF00801CC
:102BB000016104212177C06980073ED02046FFF7DC
:102BC00097FF40E06FF01001016108212177C06993
:102BD00010F4407F3AD02046FFF78AFF3CE06FF0C8
:102BE00001010161204600F03FF8ADE76FF0800180
:102BF00001612046FFF7DAFDAEE76FF040010161A9
:102C0000204600F03FF8AFE76FF020010161204659
:102C1000FFF7CEFD10BD204600F022F8204600F060
:102C200021F8002020776FE7204600F019F82046B1
:102C300000F018F8002020776EE7204600F010F82A
:102C4000204600F00FF8002020776DE7204600F0C6
:102C500007F8204600F006F8002020776CE7000017
:102C6000704700007047000042F6F011C2F2000108
:102C7000884218BF704780B504F042F8BDE8804034
:102C80007047000070470000704700007047000068
:102C9000B0B582B0036804461868D9685A6900F074
:102CA0002F05202D01F0200505D125B1204600F08B
:102CB0001DFF02B0B0BD5FEA007C1EBF02F0010E36
:102CC00001F4907212EB0E0248D1226B0840C1064B
:102CD0003BD5012A39D1002001901868019058682D
:102CE000019001985869400640D4A08DE18DE28D95
:102CF000002A1CBF401A5FEA004101D102B0B0BDFA
:102D0000216851E8031F226821F4907142E80313FF
:102D1000002BF5D1216851E8051F226821F001013F
:102D200042E80513002BF5D1202184F83E10002144
:102D3000216300BF216851E8031F226821F01001C0
:102D400042E80313002BF5D152E0010656D44006A9
:102D5000D4D5204600F0BEFE02B0B0BDC20718BFF9
:102D600011F480724FD1420753D459E0A06B01682F
:102D700049688AB2002AC1D0A38D9A42BED2E185A9
:102D8000C069B0F5807F30D0206850E8030F21681B
:102D900020F4807041E80302002AF5D1206850E851
:102DA000050F216820F0010041E80502002AF5D155
:102DB000206850E8050F216820F0400041E8050236
:102DC000002AF5D1202084F83E000020206300BFB7
:102DD000206850E8030F216820F0100041E803024A
:102DE000002AF5D1A06BFEF795F8A08DE18D401A71
:102DF00081B22046FFF748FF02B0B0BD204600F088
:102E00005FFF02B0B0BD226C42F0010222644207B3
:102E100006D5BEF1000F03D0226C42F002022264FC
:102E2000820706D5BEF1000F03D0226C42F00402E7
:102E30002264BCF1000F06D55EEA050203D0226CC5
:102E400042F008022264226C002A3FF457AF084087
:102E5000800602D5204600F049FE20684069216CBA
:102E600000F0400001F00801401827D0204600F093
:102E700009FE2068406940061BD500BF206850E865
:102E8000050F216820F0400041E80502002AF5D135
:102E9000A06B70B143F67521C0F600010165FEF725
:102EA00079F800283FF42AAFA06B016D884702B083
:102EB000B0BD2046FFF7EAFE02B0B0BD2046FFF7E6
:102EC000E5FE0020206402B0B0BD0000002804BF71
:102ED0000120704710B5044690F83D0028B9002045
:102EE00084F83C00204600F021F8242084F83D00BE
:102EF0002068C16821F40051C160204600F058FEEE
:102F00002068016921F490410161416921F02A01A1
:102F10004161C16841F40051C1600020202120645A
:102F200084F83D1084F83E1010BD000080B586B0D6
:102F300041F200010068C4F20101002288420592BA
:102F4000CDE903220292019201D006B080BD43F682
:102F500030000092C4F20200436943F01003436161
:102F6000436903F010030093009B0092036843F051
:102F700001030360006800F00100009000984FF426
:102F8000C06001900220CDE90202032004900720D6
:102F9000059001F5704001A9FEF782F92520002176
:102FA0000022FEF7CFFA2520FEF7C8FA06B080BD52
:102FB00010B590F83E30202B0BD100294FF00104C2
:102FC00018BF002A01D1204610BD90F83C30012BDB
:102FD00001D1022010BD0123002480F83C3004639D
:102FE00000F054FE204610BD10B5006841F200010B
:102FF000C4F20101884218BF10BD42F6C424C2F2D7
:103000000004217842F6C820C2F2000002F022FF3C
:1030100042F68020C2F2000021460122FFF7C8FFDD
:1030200010BD00002DE9F04381B0044690F83D004A
:1030300020280BD10E4600294FF0010055D017462D
:10304000002A52D094F83C00012803D1022001B09C
:10305000BDE8F083012084F83C004FF000092120F6
:103060001D46C4F8409084F83D00FEF7F3F9A784AC
:10307000E784A1680746B1F5805F07D12069002881
:103080001CBF30464E46B046064601E04FF00008F1
:1030900084F83C9007E000BF16F8010B21684860F7
:1030A000E08C0138E084E08C80B1204680213A46F3
:1030B0002B4600F02FFE80B9002EEDD138F8020B20
:1030C00021686FF35F2048600026E9E72046402131
:1030D0003A462B4600F01EFE18B1032001B0BDE8B1
:1030E000F083202084F83D00002001B0BDE8F0838B
:1030F00070470000FEE7000010B5002A08BF10BDB1
:1031000002394FF0370C4FF0000E00BF0CEB10747B
:10311000B0F1204F4FEA107338BF03F1300401F8CB
:10312000024F0001013A81F801E0EFD110BD00002B
:10313000B0B584B042F2E840C2F2000042F20001B1
:103140004FF080534FF000650024C4F20101C0E944
:103150000A530125CDE90244CDE900444FF4403241
:10316000047680F82040C56180F8305080E8160071
:10317000C0E903444561FDF7B7FD002818BFFDF71E
:10318000A1FC0220CDE9000542F2E840C2F20000B5
:1031900069460294FDF7B6FC002818BFFDF792FCC3
:1031A00004B0B0BD80B582B00020019043F630007D
:1031B000C4F202000168002241F48001016000684D
:1031C000002100F48000019001983820FEF7BAF940
:1031D0003820FEF7B3F902B080BD00002DE9F047BA
:1031E00086B0002443F630000594CDE90344CDE9D0
:1031F00001440094C4F20200016840F2004841F02A
:10320000040101600168C4F2020801F004010091A8
:1032100000990094016808F5806741F08001016021
:103220000168002201F0800100910099009401687A
:103230004FF4005641F001010160016801F0010105
:10324000009100990094016841F00201016000685A
:103250004FF4005100F00200009000983846FEF74D
:10326000F3F8A8F580652846102100224FF0100AD7
:10327000FEF7EAF8404648F203010022FEF7E4F8C0
:103280000DF104090196012638464946CDE902664A
:103290000494FEF705F828464946CDE901A6CDE994
:1032A0000344FDF7FDFF0320CDE9010640464946F2
:1032B000CDE90344FDF7F4FF4FF40040CDE90106EA
:1032C00040464946CDE90364FDF7EAFF06B0BDE894
:1032D000F087000080B542F6981043F20001C2F278
:1032E0000000C4F201014FF4827200234FF4007C0D
:1032F00080E80E000A21C0E90333C0E9053CC36140
:10330000C0E90833C0E90A31FFF7FAF8002818BF0E
:10331000FDF7D8FB80BD000080B586B042F6F01006
:103320000021C2F2000042F20F7CCDE90411CDE988
:103330000211CDE900114FF080425323C0E9021C75
:1033400001618021C0E900238161FFF77DFA002837
:1033500018BFFDF7B7FB4FF48050029042F6F01013
:10336000C2F2000002A9FFF753FB002818BFFDF7C7
:10337000A9FB0020CDE9000042F6F010C2F20000E7
:103380006946FFF717FA002818BFFDF79BFB06B048
:1033900080BD000080B586B042F6382040F2004281
:1033A0000021C2F20000C4F200026C23CDE9041136
:1033B000CDE90211CDE90011C0E90021C0E90213F5
:1033C00001618161FFF740FA002818BFFDF77AFB21
:1033D0004FF48050029042F63820C2F2000002A959
:1033E000FFF716FB002818BFFDF76CFB20200090AC
:1033F0000020019042F63820C2F200006946FFF733
:10340000D9F9002818BFFDF75DFB06B080BD0000AC
:1034100080B542F6802041F20001C2F20000C4F201
:10342000010100234FF00C0C4FF4E13280E80E0054
:10343000C0E90333C0E905C3C361FFF747FD0028B6
:1034400018BFFDF73FFB80BD80B542F2182040F267
:103450000401C2F20000C2F20001002200F0C8FF25
:10346000002818BFFDF72EFB42F2182040F224017D
:10347000C2F20000C2F2000101F0BEF9002818BF3C
:10348000FDF720FB42F2182040F2CC01C2F200000E
:10349000C2F2000100F05AFD002818BFFDF712FB30
:1034A00042F21820C2F2000001F054FA002818BFBE
:1034B000FDF708FB80BD0000FEE70000FEE700000E
:1034C00000F0070080F00703042B28BF04234FF00F
:1034D000FF3C03380CFA03F338BF002099438140C6
:1034E0000CFA00F022EA00000843704780B542F26F
:1034F0009050C2F20000FEF7BFF980BD70B50446DF
:10350000006843F20B06056C00EB4110D0F8081B75
:10351000C4F65476B54207D311F400411EBF00F53E
:1035200030604FF4004181602046FEF7F3FCB54265
:1035300009D32069012818BF70BD206804F5717295
:10354000012101F077FD70BD70B5044600680E469C
:1035500000EB4111036CD1F8082B256901F53061AE
:10356000012D29D1150739D4950652D412F0280F10
:1035700018BF70BD43F20B05C4F65475AB4202D3BD
:1035800012F4004233D1C6EBC6020B6904EB820190
:10359000D1E981256FF3DF43D31A2A44C1F81432ED
:1035A000C1F80822AEB9D1F8101291B904F57172C0
:1035B000012101F03FFD0CE043F20B05C4F6547508
:1035C000FF35AB4217D1100411D4900644BF202020
:1035D0008860F1B22046FEF709F870BD43F20B0097
:1035E000C4F65470834213D312F4004010D04FF449
:1035F0000040886070BD3EB9D4F8101221B904F5BE
:103600007172002101F016FDF1B22046FDF7EEFFC8
:1036100070BD2020886070BD2DE9F04F85B0064652
:10362000C1EBC10006EB8000054655F8507F2C46E3
:1036300054F8042F974254D38346D6F800C05BF861
:10364000443FBA1A9A4288BF1A460291CDF810C078
:103650000CEB4111D1F8183903329BB2B3EB920F46
:103660002ED300F14808029801F510615FFA80FA44
:10367000039100BF20682968814221D9DBF800202E
:10368000A1EB00099145D8F80010377C88BF91461E
:1036900004981FFA89F35246009701F09BFFD8F86F
:1036A000000021684844C8F8000001EB09002060D0
:1036B000039809F10301806980B2B0EB910FD9D270
:1036C00028682168884202980BD8049B00F00F00FC
:1036D0000121D3F8342801FA00F022EA0000C3F8EF
:1036E000340805B0BDE8F08F7047000010B582B017
:1036F00040F22003C2F200031B6849F68174C1F254
:103700005E64A3FB043C04464FEA5C504FF47A73BA
:10371000584301906068B0F5827F0DD113460A4688
:103720002046802100F014F878B1606D40F0200050
:103730006065032002B010BD019830B101980138D6
:103740000190206880680006F6D4002002B010BD09
:103750002DE9F04381B01E4690460D468146FDF7A7
:1037600079FE301A00EB0807FDF774FE40F22001E5
:10377000C2F200010968C1F3CB3179430091D9F855
:10378000001089682940A94219D1064608F10104B0
:1037900006E000BFD9F8000080682840A8420ED19A
:1037A000002CF7D0FDF756FE801BB8420BD20098D4
:1037B0000099002808BF0746481E0090EAE700204D
:1037C00001B0BDE8F083D9E900014268B1F5827F1C
:1037D00022F0E00242600BD1D9F80810B1F5004F99
:1037E00002D0B1F5806F03D1016821F04001016082
:1037F000D9F82810B1F5005F07D1016821F4005114
:103800000160016841F400510160012089F8510014
:10381000002089F85000032001B0BDE8F0830000CB
:103820007047000000887047B0B501380024B4EB41
:10383000106F1CBF0120B0BD4EF21005CEF2000586
:1038400068604FF0FF300F2101F01EFF0720AC60D1
:1038500028602046B0BD000080B5FDF701FE80BDA8
:1038600070B592B006AC20463021FCF7F9FC00257B
:1038700043F640000595CDE90355CDE90155009586
:10388000C4F202000168022641F080510160006824
:1038900000F080500090009847F200000095C4F2BC
:1038A0000000016866F38F310160006800F4404059
:1038B00000900098012006904FF4803007904FF45C
:1038C00080000D9019200E904FF4A8700F900420E6
:1038D00010900720119020460C96FEF76DFC78B9E9
:1038E0000F20CDE901064FF48050CDE9040501A871
:1038F00002210395FEF752FB002804BF12B070BDF1
:10390000FDF7E0F84EF68850CEF20000016841F471
:10391000700101607047000080B542F6F010C2F2FD
:103920000000FFF7E7F880BD10B540F2FF7E0368A6
:10393000C4F2000E40F2000C7045C4F2010C0ADD26
:1039400040F60002C4F2000290420DD060450BD058
:1039500040F6004204E0B0F1804F05D040F2004252
:10396000C4F20002904203D14A6823F0700313436B
:103970004FF6FF72C4F20002904209DC704512DC7F
:10398000B0F1804F26D040F20042C4F200021FE0A6
:1039900044F2FF32C4F2010290420FDC604519D0BC
:1039A00044F2000212E040F60002C4F2000290422B
:1039B00010D040F60042C4F2000209E044F60002D2
:1039C000C4F20102904205D044F20042C4F2010266
:1039D000904203D1CA6823F44073134323F080025A
:1039E0004B69D1F800E08C681A4360450260C462FC
:1039F000C0F828E002D10969CCF8301001214161FA
:103A000010BD0000D0F808C011432CF47F4C41EAEF
:103A1000032141EA0C01816070470000826822F0B6
:103A20007002114341F0070181607047D0F820C057
:103A3000036A23F001030362836923F0F00343EA7E
:103A400002122CF00A0319438261016270470000E0
:103A5000036A23F0100303628369D0F820C023F4C3
:103A6000704343EA02322CF0A00343EA0111826161
:103A70000162704780B5806B0021C185C184FFF76A
:103A800005F980BD016851E8031F026821F49071B7
:103A900042E80313002BF5D1016851E8051F0268C5
:103AA00021F0010142E80513002BF5D1016B01293A
:103AB0000AD100BF016851E8031F026821F010011C
:103AC00042E80313002BF5D1202180F83E1000219D
:103AD0000163704780B50168CA6822F04002CA607D
:103AE000202180F83D10FFF703FB80BD80B582B038
:103AF00090F83E1022291ED18268B2F5805F02D173
:103B00000169002948D0816AB2F5805F07D00AB9FF
:103B1000026922B10268526802F07F0201E0026885
:103B200052680A700121826A11448162C18D013993
:103B30000A04C18501D002B080BD0168CA6822F0C4
:103B40002002CA60CA6822F48072CA604A6922F000
:103B500001024A61202180F83E10016B012923D126
:103B600000210163016851E8031F026821F0100180
:103B700042E80313002BF5D101680A68D20606D586
:103B8000002201920A680192496801910199818D90
:103B9000FFF77AF802B080BD0168826A49686FF366
:103BA0005F2111800221BEE7FFF71EFA02B080BD3F
:103BB00010B504460068D4E902C22369016921F402
:103BC000405111430161626943EA0C01E369114309
:103BD000C268194349F20C639A431143C1604169B9
:103BE000A26921F4407141F20043114340F4806224
:103BF000C4F201039A42416102D1FEF797FA01E053
:103C0000FEF782FAE16963681922B1F5004FA0FB63
:103C100002011CD15A00DB0FFCF7D8FA48F21F5101
:103C2000C5F2EB11A0FB01235A096FF0630302FBFD
:103C30000300322303EBC000A0FB01014FF4F87036
:103C400000EA111000EB0210C1F342111AE09A00D1
:103C50009B0FFCF7BBFA48F21F51C5F2EB11A0FB1A
:103C600001235A096FF0630302FB0300322303EBC5
:103C70000010A0FB0101F02000EA511000EB02103F
:103C8000C1F3431122680843906010BD81628285B0
:103C9000C28500212222016480F83E20026880F85B
:103CA0003C10D06840F48070D060506940F0010052
:103CB0005061D06840F020010020D16070470000C2
:103CC00090F83D10212923D18168B1F5805F01D1A1
:103CD000016931B1016A02684B1C036209785160C5
:103CE00007E0016A036831F8022B6FF35F225A6024
:103CF0000162C18C01390A04C18418BF7047006891
:103D0000C16821F08001C160C16841F04001C1601B
:103D1000704700002DE9F041044600680068084043
:103D2000884202D10020BDE8F0811D460E46904633
:103D30005F1C04E0206800683040B042F2D0002FE1
:103D4000F8D02DB1FDF786FBA0EB0800A842F1D911
:103D5000206850E8030F216820F4D07041E8030286
:103D6000002AF5D1206850E8050F216820F00100F5
:103D700041E80502002AF5D1202084F83D0084F8AE
:103D80003E00002084F83C000320BDE8F0810000E4
:103D900080B542F68020C2F20000FEF779FF80BDB8
:103DA00001291DD170B5D0F8BC52044641F6E2306D
:103DB0002E5CB6FA86F149092954FCF7D3FD20465A
:103DC000812100F0D5FB41F68A30002E18BF2C353A
:103DD0002A18204681212C2300F0F2FCBDE8704017
:103DE0000020704701293CD1F0B581B0D0F8BC6209
:103DF000044641F684303718204600F0C1FB0546E2
:103E0000D4F8C002B988436970180430A9B20122FD
:103E10009847B888284481B2B1F5DC5FB8800DD1ED
:103E2000387800250328BD8008D1D4F8C0024FF4AB
:103E30005C618368301D012298473D70787828B90D
:103E4000B888B0F55C6F04BF01207870B888012194
:103E50003044021D2046582300F00CFC01B0BDE8A0
:103E6000F040002070470000B0B50121044600F08A
:103E7000DFFAD4F8BC020025C4F8785150B1D4F868
:103E8000C002416800208847D4F8BC0200F06CFEF4
:103E9000C4F8BC520020B0BD10B5D0F8BC1241F639
:103EA000E3328B5C012B0DD18C1894F8421002295F
:103EB00008D1D0F8C00201696078884700202070DE
:103EC00084F84100002010BD00207047014640F2F8
:103ED0005C006422C2F200000A807047014640F292
:103EE000C0000A22C2F200000A80704770B5044682
:103EF00041F6284000F03AFEF0B10546C4F8BC0295
:103F00002046812101222C23012600F0A7FB204618
:103F10008121268700F02CFB41F6E230285C8121CC
:103F2000002841F68A3018BF58352A1820462C231D
:103F300000F046FC002070BD0020C4F8BC02022046
:103F400070BD0000002070470020704700290EBFA0
:103F50000320C0F8C0120020704700000020704706
:103F600080B582B00A78002312F06002ADF8063006
:103F70000AD0202A21D14A78012A22D0812A24D1AC
:103F8000FCF70AFD002261E04B780B2B21D8D0F81A
:103F9000BCC20022DFE803F0065A1D1D1D1D211DB5
:103FA0001D1D343E90F89C22032A3ED10DF10601DE
:103FB000022200F09FF8002248E000F077F8032288
:103FC00044E0FCF7FBFC002240E000F06FF8032225
:103FD0003CE000F06BF8032238E0CA784FF4045359
:103FE000B3EB022F25D1CA8840F25C01C2F2000176
:103FF0001231092A28BF092200F07CF8002225E0AE
:1040000090F89C22032A16D16146012200F072F832
:1040100000221BE090F89C22032A10D18A78012A02
:1040200011D8CCF80020002210E000F03FF8032265
:104030000CE000220AE000F039F8032206E000F06C
:1040400035F8032202E000F031F80322104602B0F6
:1040500080BD000080B5D0F8B8220AB15268904700
:10406000002080BD80B590F89C22013A022A09D830
:104070004988012918BF80BD0021C0F8A41200F0B2
:1040800047F880BD00F012F880BD000080B51346EF
:104090000A46002100F0EEFA002080BD80B51346EC
:1040A0000A46002100F08CFB002080BD10B5802165
:1040B000044600F06BFB2046002100F067FB10BDBA
:1040C00080B513460A460321C0F894120021C0E9C6
:1040D000563300F0CFFA002080BD000080B50521E6
:1040E000C0F8941200210022002300F0C3FA00203F
:1040F00080BD000080B513460A460221C0F8941224
:104100000021C0E9063300F05BFB002080BD000009
:1041100080B50421C0F8941200210022002300F091
:104120004FFB002080BD000010B540F22414C2F205
:1041300000040A4602A0214600F02AF9204610BDDC
:10414000415544494F20436F6E6669670000000087
:1041500040F2E8001222C2F200000A80704700001C
:1041600010B540F22414C2F200040A4602A021460F
:1041700000F00EF9204610BD415544494F20496ECC
:10418000746572666163650040F2FC000422C2F24D
:1041900000000A807047000010B540F22414C2F2FB
:1041A00000040A4602A0214600F0F2F8204610BDA5
:1041B00053544D6963726F656C656374726F6E6999
:1041C0006373000010B540F22414C2F200040A46E2
:1041D00002A0214600F0DCF8204610BD53544D33B8
:1041E0003220417564696F20436C61737300000075
:1041F00080B51A200880FCF76BFC40F20010C2F278
:10420000000080BD80B5C988012910D190F89C12AA
:104210004A1E022A04D20022014641F8082F02E079
:10422000032904D1011D0122FFF764FF80BDFFF7C0
:104230003DFF80BDB0B582B0044648880D464FF0C2
:10424000FF3101EB102100220629ADF8062061D8CC
:10425000DFE801F00414086060212A00D4F8B402F9
:10426000026841E0C0B2052854D8DFE800F0032915
:104270002D313539D4F8B402426834E0217CD4F8C9
:10428000B80200290CBF816AC16A0DF10600884797
:104290000146022012E0207CE0BBD4F8B802416B5A
:1042A0000DF10600884723E0207C98BBD4F8B802C3
:1042B000016B0DF10600884701460720487018E0A1
:1042C000D4F8B40282680EE0D4F8B402C2680AE0FE
:1042D000D4F8B402026906E0D4F8B402426902E0FC
:1042E000D4F8B4028269AAB1207C0DF1060190478E
:1042F00001460120A8B1EA88AAB1BDF80600B8B10C
:10430000904238BF02462046ADF80620FFF7F2FE85
:1043100002B0B0BD2046FFF7C9FE002100200028F2
:10432000E9D102B0B0BD2046FFF7F2FE02B0B0BD49
:104330002046FFF7BBFE02B0B0BD0000017849B1D6
:10434000411E00208A780130002A01F10101F9D1D3
:10435000C0B270470020C0B27047000080B590F82E
:104360009C22013A022A0FD8C98802290CD1D0F820
:10437000A4120322002908BF0122014641F80C2F94
:104380000222FFF7B7FE80BDFFF790FE80BD000060
:1043900070B5F0B1164605460C46FFF7CFFF022177
:1043A00001EB4000308020700320607028780028E6
:1043B00008BF70BD691E0222002300BFD6B2A055FF
:1043C00046F00100235488780232002801F10101EF
:1043D000F4D170BD032884BF0320704740F2003140
:1043E000C000C0F2013121FA00F0C0B270470000F5
:1043F000002804BF0320704780B50023C0F8B832FE
:10440000C0F8C0320029C0F8CC3218BFC0F8B412CE
:10441000012180F89C12027000F0B8F880BD000005
:1044200080B5D0F8C402FDF71BF9FFF7D3FF80BDBC
:1044300080B5D0F8C402FDF7EDF8FFF7CBFF80BDE3
:10444000B0B5044671B194F89C02032849D1D4F860
:10445000B8024269002A44D020469047002808BF8D
:104460000020B0BDD4F89402022833D1D4E907105B
:1044700081420DD90B1A204611461A46E361FFF717
:104480000DFE204600210022002300F0F3F821E079
:104490000FD1A16981420CD3D4F89802814208D28D
:1044A0002046002100220025FFF7F8FDC4F89852AD
:1044B000E7E794F89C02032805D1D4F8B802C16854
:1044C00009B1204688472046802100F05FF9204648
:1044D000FFF704FE94F8A002012804BF002084F82E
:1044E000A0020020B0BD000010B5044669B194F8E8
:1044F0009C0203281CD1D4F8B8028269C2B12046BC
:104500009047002808BF002010BDD4F8940203286B
:104510000ED1D4E9570398420CD9C01AC4F85C01F3
:10452000984238BF0346204611461A46FFF7AEFDB3
:10453000002010BD94F89C02032805D1D4F8B802DD
:10454000016909B1204688472046FFF7E1FD0020B8
:1045500010BD00000020704780B5012180F89C123A
:10456000D0F8B81211B14A6801799047002080BD97
:1045700080B5D0F8C402FDF7A5F8FFF72BFF80BD8A
:1045800080B5D0F8C402FDF7B7F880BD10B501784A
:1045900009B1002010BD42F29051C2F20001C1F8F1
:1045A0000404C0F8C4124FF0A0400422C1E9000284
:1045B00002200022C1E90302C1E906020846C1E95E
:1045C0000822C1E90B22FDF78DFB002818BFFCF77C
:1045D00079FA42F29054C2F2000420468021FCF79E
:1045E000C7FF204600214022FCF7C6FF20460121DC
:1045F0008022FCF7C1FF002010BD0000D0F8C402EB
:1046000001F07F02C2EBC20200EB820000F13E0229
:10461000090658BF00F5FF721078704780B5D0F8D2
:10462000B82242B190F89C32032B02D1126A02B137
:104630009047002080BD032080BD000080B5D0F8E9
:10464000B82242B190F89C32032B02D1526A02B1D7
:104650009047002080BD032080BD000080B59446B7
:10466000D0F8C4021A466346FDF750F8FFF7B2FED1
:1046700080BD000080B5D0F8C402FDF777F8FFF7E1
:10468000A9FE80BDF0B581B004460120002184F868
:104690009C02C4F89412D4F8B8026160C4F8A41261
:1046A000E8B1D4F8BC1221B1426812B12046002111
:1046B0009047204600210022402300254026FFF796
:1046C000CDFF01272046802100224023A4F86471F9
:1046D000C4F86061FFF7C2FFA784266200E00325EB
:1046E000284601B0F0BD000090F89C12042904BFD8
:1046F00090F89D1280F89C120020704780B5D0F889
:10470000B81241B190F89C22032A02D1C96901B1C3
:104710008847002080BD032080BD000002460020A5
:104720001174704780B5D0F8C402FDF7DFFBFFF7C6
:1047300051FE80BDB0B500F2AA250446284600F01F
:1047400047F80120C4F8940294F8AA02B4F8B02201
:1047500000F01F010229C4F8982207D001290AD0CD
:1047600071B92046294600F0F9F8B0BD2046294627
:1047700000F02CF9B0BD2046294600F0C3F9B0BDC9
:1047800000F08001204600F001F8B0BD80B5D0F8FF
:10479000C402FDF715F8FFF71DFE80BD80B5D0F807
:1047A000C402FDF7C1FBFFF715FE80BD014690F87E
:1047B0009C02042281F89D02002081F89C2270470F
:1047C00080B5D0F8C402FDF733F8FFF703FE80BDD3
:1047D000B0B50C4609780546017060786870A01C79
:1047E000FFF720F86880201DFFF71CF8A880A01DA7
:1047F000FFF718F8E880B0BD10B582B0044600207D
:10480000ADF8060059B1CA6AC4F8B81222B10DF168
:1048100006009047C4F8CC02002002B010BD03206F
:1048200002B010BDB0B58A88044642B9C88830B914
:1048300048887F2803D894F89C12032903D1204686
:10484000FFF734FCB0BD00F07F052046294684F810
:104850009E52FFF767FF2046FFF75AFC002D14BF5A
:104860000220012084F89C02B0BD000080B5D0F881
:10487000B82212B11268904780BD032080BD0000AD
:10488000B0B50446488840F22015C2F2000510F089
:10489000FE0F287004D02046FFF708FC0320B0BDAF
:1048A00094F89C22C1B2032A0DD0022A23D191B3DD
:1048B00020466160FFF7DAFF054688B32046FFF720
:1048C000F5FB2846B0BDF9B16068884223D0C1B27B
:1048D0002046FFF7BFFB297820466160FFF7C6FF3F
:1048E000054628B32046FFF7E1FB21792046FFF774
:1048F000B1FB022018E02046FFF7D8FB29782046BC
:10490000FFF7A8FB0320B0BD022084F89C022046DC
:104910006160FFF79FFB2046FFF7FAFB0020B0BD68
:104920002046FFF7F5FB032084F89C022846B0BD23
:104930002046FFF7EDFB2846B0BD000080B5498852
:10494000012918BF80BD0121C0F8A412FFF7E0FBC8
:1049500080BD000080B5FFF721FF80BD80B50A78DB
:1049600012F0600208D0402A01D0202A12D1D0F8DB
:10497000B8229268904780BD4A78092A0AD8DFE8B1
:1049800002F0050D091109152009191DFFF7E6FCB4
:10499000002080BDFFF78AFB002080BDFFF762FB8F
:1049A000002080BDFFF7CAFF002080BDFFF73AFF5F
:1049B000002080BDFFF726FC002080BDFFF760FFD0
:1049C00080BDFFF737FC002080BD0000B0B50D466C
:1049D0000978044611F060010AD0402901D020294D
:1049E00070D1D4F8B8022946826820469047B0BDFD
:1049F00068782979B0B1012833D0032862D194F8BE
:104A00009C02032831D1688840B941F08000802899
:104A100004D0E88810B92046FFF7B8FE2046FFF71B
:104A200077FB52E094F89C0203282CD0022849D14D
:104A300041F08000802845D101F07F0000EB80002C
:104A400004EB800000F11402090658BF00F5AA72B9
:104A500000251560204611460222FFF74BFB284631
:104A6000B0BD94F89C02032832D002282AD141F02C
:104A70008000802826D02046FFF788FE204680212F
:104A8000FFF784FE21E001F00F0202EB820211F039
:104A9000800004EB82020CBFB2F86421928C8AB1D0
:104AA00001F07F0202EB820204EB820202F11405A4
:104AB000002841F0800008BF02F5AA75802813D1B4
:104AC000002017E02046FFF7F1FA00252846B0BD88
:104AD00068880028F9D1480602D02046FFF7A0FCDC
:104AE0002046FFF715FB7CE72046FFF787FD0028EF
:104AF000E6D001202860204629460222FFF7FAFA74
:104B0000E3E7000070B50D460978044611F0600136
:104B100018BF40290ED194F89C020138022803D80E
:104B2000A88810F0FE0F0DD02046FFF7BFFA002630
:104B3000304670BD2029EED02046FFF7B7FA002698
:104B4000304670BDD4F8B8022946826820469047A6
:104B500006460028F4D1E8880028F1D12046FFF766
:104B6000D7FA304670BD00007047000040F2243094
:104B7000C2F200007047000080B54B780A78012B24
:104B800002F00F0324D14FF0010CD0F81CE80CFA0E
:104B900003F343EA0E03C0F81C3800F5106C530110
:104BA0005CF80300000431D4886891F803E06FF3E7
:104BB000DF2053F80C1040EA8250084340EA8E4050
:104BC00040F0805040F4004043F80C00002080BDCD
:104BD0004FF4803CD0F81CE80CFA03F343EA0E03D0
:104BE000C0F81C3800F53060520183581B040DD406
:104BF0008B6891F803C011586FF3DF23194341EA22
:104C00008C4141F0805141F400411150002080BDA1
:104C10000146D0F8000940F2FF729043C1F8000944
:104C2000D1F8040840F480720020C1F804287047CD
:104C300070B50699049D0129044619D1A06B4FF661
:104C4000BF7120F48030A063E068CFF6BD710840EA
:104C5000E060E0680D9920F440100129E06003D184
:104C6000E06840F48010E060204600F01DF80FE09E
:104C7000E0680A9E40F04000E060204600F014F832
:104C8000A16B002E14BF21F4803141F48031A16367
:104C9000012D18BF70BDA16841F00601A160A16897
:104CA00041F02001A16070BD81B040F64051C0F2DA
:104CB00003010022009200BF009A01328A42009252
:104CC00015D80269B2F1FF3FF6DC002200920269BA
:104CD00042F00102026100BF009A01328A42009252
:104CE00005D80269D207F7D1002001B07047032030
:104CF00001B0704710B54B7891F800E047F6000C12
:104D0000012BCEF6334C00EB4E1108D1D1F800390F
:104D1000B3F1FF3F01F510630DDD01241FE0D1F871
:104D2000002B01F53063B2F1FF3F0CF1707C0CDD1C
:104D30004FF4803413E01968012441F000611960D8
:104D4000196841F08041196009E019684FF4803416
:104D500041F000611960196841F0804119600EF05E
:104D60000F02D0F83C1804FA02F29143C0F83C1844
:104D7000D0F81C189143C0F81C18186800EA0C0100
:104D80000020196010BD00000146D0F8000E20F090
:104D90000300C1F8000ED1F8040820F00202002040
:104DA000C1F80428704700000146D0F8000E20F03A
:104DB0000300C1F8000ED1F8040840F00202002000
:104DC000C1F80428704700002DE9F04F81B0044677
:104DD000DDF844A00C98DDF828900D464121002212
:104DE00044F8212001315029FAD1BAF1000F07D03F
:104DF000A16B21F40011A163A16B41F4002110E02B
:104E0000D4F8041841F00201C4F80418A16B41F46D
:104E10000011A163A16B21F40021A163A16B21F416
:104E200080214FF00008A163C4F8008ED4F8001868
:104E3000002BC4F8001818BF0123012818BF032352
:104E40002046194600F032FB2046102100F06AFA95
:104E50008346204600F04EFAC4F81088C4F814883F
:104E6000C4F81C8885B304F510614FF67F32002327
:104E70000E684FF09047002B08BF4FF0006707EA1D
:104E8000E67701330F60C1F810808A609D4201F11E
:104E90002001EDD104F530614FF0000C4FF67F3367
:104EA000002600BF0F684FF09042002E08BF4FF061
:104EB000006202EAE77201360A60C1F810C08B6036
:104EC000B54201F12001EDD1D4F81018B9F1000F6D
:104ED00021F48071C4F810186FF08041C4F8188074
:104EE000616103D1A16941F01001A161A16943F69B
:104EF0000002C8F23C0211430D9AA1611AB1A169E6
:104F000041F00801A161BAF1010F05D1A16941F099
:104F1000804141F00401A16150EA0B0018BF01205B
:104F200001B0BDE8F08F00000146806820F001026A
:104F300000208A6070470000F0B54B7891F800C0FF
:104F4000012B23D14E6900EB4C1E00254FF6FF7458
:104F5000DEF81079CFF6F875CEF20704002E0EF5C4
:104F600010633ED03D401D611D6925401D618D6867
:104F700004F10054AE4288BF4D611D6945F400251F
:104F80001D614D691E692C40344332E000EB4C1327
:104F9000D3F8100B6FF31200C3F8100BD3F8100BFB
:104FA0006FF3DC40C3F8100B4F6903F53063002F3B
:104FB0001CBF8F684F611F694FF6FF7047F40027D1
:104FC0001F61CEF207008F6800F100501E69384063
:104FD0003043012A186114D1C868002818BF5861ED
:104FE0000FE03C401C611C6944F400241C611C69F6
:104FF0002C40012A1C610BD10869002818BFCEF88B
:1050000014094FF004411868084318600020F0BDEF
:10501000DEF8002942F00442CEF80029496900294F
:10502000F4D00CF00F01012202FA01F100F6340372
:10503000E9E70000D0F840C043F20B03C4F6547314
:105040009C4503D3D0F8003B002B1ED40023C0F8AE
:10505000103BD0F8103B012943F40023C0F8103B6B
:10506000D0F8103B43F01803C0F8103BD0F8103BC9
:1050700043F0C043C0F8103B07D1C0F8142BD0F860
:10508000001B41F08021C0F8001B00207047000089
:105090004B780A78012B11D100F51060520183582A
:1050A00023F400138350C97801F0FE01022915D1C1
:1050B000115841F0805111500020704700F53060C8
:1050C0005201835823F400138350C97801F0FE0184
:1050D000022903D1115841F080511150002070472E
:1050E0004A780978012A0ED100EB4112D2F8000962
:1050F000002902F5106114D0002812D4086820F0AD
:10510000804008600DE000EB4112D2F8000B00294E
:1051100002F5306105D0002803D4086820F08040F3
:105120000860086840F4001200200A607047000020
:10513000F0B581B04B7894460A78012B30D1D1F884
:1051400014E000EB4213D3F81059BEF1000F03F541
:1051500010644AD06FF31205256125696FF3DC45B1
:1051600025618D6827690EEB0506013EB6FBF5F556
:105170000026C1F6F87606EAC5453D432561754629
:1051800026696FF3DF4535432561CD78012D37D191
:10519000256925F0C0452561256945F000552EE0BB
:1051A00000EB4212D2F8103B6FF31203C2F8103B2F
:1051B000D2F8103B6FF3DC43C2F8103B4D698B68AB
:1051C000002D02F5306257D0EF18013FB7FBF3F71F
:1051D0000026C1F6F87606EAC7461569BFB27B43DA
:1051E0002E436FF3DF4316614DE06FF3DC4525611D
:1051F000256945F40025256125696FF312052561B0
:10520000BCF1010F1BD10A69002A18BFC3F8142989
:10521000C97801290CD1D0F80808D3F80019C005C5
:105220004FF0805058BF4FF000500843C3F80009BA
:10523000D3F8000940F00440C3F8000940E000F54D
:10524000106354011D5945F004451D51CD78012DC1
:1052500039D1D0F80858E658ED054FF0805558BFC1
:105260004FF000553543E550C9681FFA8EF3CDF86D
:1052700000C000F0AFF923E017696FF3DF433B4351
:1052800013614FF400231769BCF1010F43EA0703D0
:10529000136103D1CB68002B18BF5361C978012972
:1052A0000AD1D0F808081168C0054FF0805058BFE7
:1052B0004FF0005008431060106840F00440106048
:1052C000002001B0F0BDBEF1000FF9D002F00F01D7
:1052D0000122D0F8343802FA01F11943C0F8341829
:1052E000EEE700000146806840F0010200208A607D
:1052F0007047000081B0002100911021016140F64B
:105300004051C0F2030100BF009A01328A4200926C
:1053100005D80269D206F7D4002001B070470320F7
:1053200001B0704781B089010022203100920161F3
:1053300040F64051C0F20301009A01328A420092C5
:1053400005D802699206F7D4002001B07047032007
:1053500001B07047D0F8080810F0060F04BF002015
:10536000704780074FF0020058BF0F2070470000C1
:10537000406900F001007047D0F81818D0F81C08F8
:10538000084080B270470000D0F81818D0F81C0808
:105390000840000C70470000D0F810C8D0F834382E
:1053A00001F00F0223FA02F2D20100EB4110D2B257
:1053B000D0F8080942EA0C010840704700EB41119F
:1053C000D1F8081BD0F8140808407047416980697B
:1053D0000840704780B50023B3EB920F02F003033F
:1053E0000BD0920804394FF4805C00BF50F80CE0F9
:1053F000013A41F804EFF9D1043173B14FF480520E
:1054000050F802C0002200BF2CFA02F0013B01F864
:10541000010B180402F10802F6D1084680BD000015
:1054200070B50446C06820F0C040E06099B1012921
:1054300028D1E068002540F00050E06001202E46B1
:10544000FBF71AFF20460135FFF792FF302E13D8E5
:105450000128F3D110E0E068002540F08040E060D2
:1054600001202E46FBF708FF20460135FFF780FF9D
:10547000302E01D80028F3D1A5F13200B0FA80F027
:10548000400970BD012070BD0246D0F8000801F04F
:105490007F0120F4FE60C2F80008D2F8000840EA5C
:1054A00001110020C2F80018704700000246D0F831
:1054B000000801430020C2F800187047022A024683
:1054C0000DD145F24030CFF6277043F20053084427
:1054D000C0F20C0398420DD24FF4705001E04FF42B
:1054E0001050D16821F47051D160D168014300207F
:1054F000D160704741F64060CFF61B7044F2402304
:105500000844C0F20F03984202D24FF46050E8E71B
:10551000A1F5740044F68073A0F51050C0F2120398
:10552000984202D24FF45050DBE7A1F183704DF264
:105530002063A0F5E740C0F21303984202D24FF473
:105540004050CEE74BF26060CFF6E5604EF260333C
:105550000844C0F21603984202D24FF43050C0E71C
:105560004DF20030CFF6CE6047F240730844C0F2EF
:105570001B03984202D24FF42050B2E745F6C030E8
:10558000CFF6B36049F2C0130844C0F22103984239
:1055900002D24FF41050A4E7A1F1B77047F22053A4
:1055A000A0F55850C0F23803984202D24FF4005090
:1055B00097E745F2E040CFF6596049F6E0430144F1
:1055C000C0F241034FF4C050994238BF4FF4E0504D
:1055D00087E70000DDF800C0BCF1000F12D103F135
:1055E000030C0023B3EB9C0F0CD04FEA9C0300F597
:1055F000805C1203043900BF51F8040F013B42F8EC
:105600000C00F9D100207047FEE7000080B542F69B
:10561000C82045F23561C2F20000C0F60001816683
:1056200042F65431C2F200014FF4007200F058FD0E
:1056300080BD000080B582B08DF8070042F6802062
:10564000C2F200000DF1070101224FF6FF73FDF7D2
:10565000E9FC02B080BD0000002848BF704700F0A0
:105660001F01012202FA01F14EF200124009CEF2AE
:10567000000242F8201070474EF60C50CEF20000A7
:105680000068C0F3022070474EF6145300F00F027A
:10569000CEF2000309011A4400F16043B0F1FF3F6C
:1056A000C8BF03F564421170704700004EF60C51FC
:1056B000CEF200010A684FF6FF031A4060F30A2297
:1056C00042F0806040F0FD700860704780B582B0A5
:1056D000019042F68020C2F2000001A901224FF69B
:1056E000FF73FDF79FFC019802B080BD80B502A05A
:1056F00003F03CF880BD00BF68656C6C6F206C6582
:1057000074746572207368656C6C2100FBF7B6FEDB
:10571000FEF7A6F8FDF762FDFDF77AFEFDF794FEB1
:10572000FDF7D8FDFDF73EFDFDF702FDFDF7F4FDA9
:10573000FDF730FE42F6F010C2F20000FDF726F948
:1057400042F63820C2F20000FDF7E2F8FFF75EFFF4
:1057500042F6802042F6C421C2F20000C2F20001EB
:105760000122FDF725FC42F65874C2F2000448F607
:10577000402147F6652247F6E153C0F60001C0F626
:105780000002C0F60003204601F0D0FC204602F0E3
:1057900015F92046002102F021F948F64C21C0F607
:1057A0000001204601F080FC40F20044C4F20204F3
:1057B00020464FF40041FBF73FFEC820FBF75CFD9D
:1057C000F6E7000000EB40003F21A1EB9020C0B2C3
:1057D0007047000042F6403C0022C2F2000C05E097
:1057E00093B2032B02F1010288BF704713B25CF839
:1057F00023100029F4D14CF82300704780B5012113
:1058000000F076F880BD000010B50168044600691C
:105810008968FAF737FD08B108A109E094F860003B
:1058200048F6D10140F00100C0F6000184F86000A4
:10583000204601F04FFA0020E06010BD0D0A7061B3
:105840007373776F7264206572726F720D0A000055
:105850000A7842B14B7803F00F03082B03D003689A
:105860001B7813420ED090F86000C0071EBF0020C6
:10587000404270474878012100F0100081EA101082
:1058800040427047012040427047000080B500F060
:10589000ABFA002808BF80BD48F63121C0F60001F0
:1058A00001F018FA80BD0000B0B504468089E18996
:1058B000401A05B2012D07DB2046202101F05EF9D8
:1058C00028B2013D0128F7DC217B204600F078F862
:1058D000B0BD000080B500F087FA002818BF00F0C6
:1058E000BDFC80BD80B54FF0FF3100F001F880BDF8
:1058F000B0B5C2890446012908BF002A52D0A38945
:1059000011F1010C08BF9A424CD0012908BF9A42FC
:1059100049D0A289E189BCFA8CF35D09531AAB42E4
:105920000DDD2B4622692944555C114401F8015CC8
:10593000A289E18901331DB2501AA842F2DC013A72
:10594000BCF1000FA28105D0481EE081204608214D
:1059500001F014F92069A18900224254B4F90E0023
:10596000A18988420ADA85B22169095C204601F0E2
:1059700005F90135A18928B28842F5DB20462021AE
:1059800001F0FCF8A089E189401A013005B2012D2F
:10599000B8BFB0BD2046082101F0F0F8681E05B27E
:1059A000002DF7DCB0BD501EE081581E2169A0819A
:1059B00080B200220A542046012100F001F8B0BD57
:1059C00070B5002908BF70BD0C46054604A600BF8F
:1059D00028463146013C01F07DF92006F8D170BD22
:1059E0000820080080B54FF0FF3100F0F5FA80BDC7
:1059F00010B5044600F004F8204601F0F3F810BD9D
:105A0000B0B50446808948B1216900250D5494F849
:105A10006000C00703D12046FFF7F6FEB0BD204668
:105A200000F028FB204600F055FDE08EE5600028E0
:105A300008BFB0BD48F62721C0F60001204601F09E
:105A400049F96169A26D2046002300F013FE20B1E0
:105A50000146204600F0C4FDB0BD48F69C01C0F6EA
:105A60000001204601F036F9B0BD00000146007883
:105A7000302806D14A7842F02002782A15D1032036
:105A800000E000200A78002A08BF7047013107E0D3
:105A90004A78002A1CBF0420704711F8012B1AB164
:105AA0000A782E2AF4D0F8E77047302806D14878D3
:105AB00040F02000622801D10120E3E70220E1E765
:105AC000014640785C2818BF70478978A1F16202CE
:105AD000122A0ED80820DFE802F011101010101062
