:020000040800F2
:1000000060330020A901000849340008813000084D
:1000100045340008CD0900086D55000800000000B7
:10002000000000000000000000000000A5370008EC
:100030009D0A0008000000006D360008DD3700084A
:10004000C3010008C3010008C3010008C301000880
:10005000C3010008C3010008C3010008C301000870
:10006000C3010008C3010008C3010008C301000860
:10007000C3010008C3010008C3010008C301000850
:10008000C3010008C3010008C3010008000000000C
:10009000000000000000000000000000C301000894
:1000A000C3010008C3010008C3010008C301000820
:1000B0009D380008C3010008C3010008C3010008FF
:1000C000C3010008C3010008C3010008C301000800
:1000D000C3010008153D0008C3010008000000002E
:1000E000C3010008C3010008C301000800000000AC
:1000F000000000000000000000000000C301000834
:1001000000000000C3010008C3010008C30100088B
:1001100000000000000000000000000000000000DF
:10012000D1090008C3010008C3010008C301000889
:10013000C3010008000000000000000000000000F3
:1001400000000000000000000000000079340008FA
:10015000C3010008C3010008C3010008C30100086F
:10016000C3010008C30100080000000000000000F7
:10017000000000000000000000000000000000007F
:1001800000000000C30100080000000000000000A3
:10019000C3010008DFF80CD000F080FA00480047E7
:1001A0007156000860330020064880470648004723
:1001B000FEE7FEE7FEE7FEE7FEE7FEE7FEE7FEE717
:1001C000FEE7FEE789380008950100082DE9F05F99
:1001D0000546002092469B468846064681464024B6
:1001E0001BE0284641464746224600F08EF853461B
:1001F0005A46C01A914110D311461846224600F0C3
:1002000075F82D1A67EB01084F46224601200021A0
:1002100000F06CF817EB00094E41201EA4F1010418
:10022000DFDC484631462A464346BDE8F09FD2B25D
:1002300001E000F8012B491EFBD270470022F6E7CF
:1002400010B513460A4604461946FFF7F0FF20464C
:1002500010BD421C10F8011B0029FBD1801A704709
:1002600010B5002200E0521C835C8C5CA34201D1DB
:10027000002BF8D1D8B2E1B2401A10BD30B5054616
:100280000020034600E05B1C934205D2EC5CC85C96
:10029000201A01D1002CF6D130BD00F0004230F020
:1002A00000400AD0C10D01F56071C0F3160042EAAA
:1002B0000151C208400711437047002001467047B2
:1002C00030B50B46014600202022012409E021FA26
:1002D00002F59D4205D303FA02F5491B04FA02F523
:1002E0002844151EA2F10102F1DC30BD202A04DBF6
:1002F000203A00FA02F1002070479140C2F1200339
:1003000020FA03F3194390407047202A04DB203A77
:1003100021FA02F00021704721FA02F3D040C2F125
:10032000200291400843194670472DE9FE4F804650
:1003300081EA0300C00F0C46009021F0004123F039
:100340000045B8EB0200A94105D24046214690463F
:100350001C460B46024623F00040104347D0270DB1
:10036000C7F30A00C3F30A510290401A01904028D3
:100370006BDAC3F3130040F4801B0098924620B15F
:100380000023D2EB030A63EB0B0B01985946C0F133
:1003900040025046FFF7AAFF06460D465046594612
:1003A000019A00F08DF910EB08006141002487EA02
:1003B000115284EAE7731A4340D0009A62B3019A5B
:1003C000012A4FEA075215DC001B61EB02014FF0D6
:1003D000004202EA0752CDE90042001C41F58011BB
:1003E00032462B4600F08DF903B0BDE8F08F404651
:1003F0002146F9E7001B61EB0201001C41F5801367
:1004000000185B412018A2F5001747EB030140EAF2
:10041000D570B6196D4111E06D084FEA360645EA10
:10042000C0754FEA0752001B61EB0201001C41F549
:10043000801149084FEA30000019514132462B46DD
:1004400003B0BDE8F04F00F04DB900980122400024
:100450000023D0EB020263EBE073009821464FEAE1
:10046000E074B8EB000061EB0401E9E783F00043BE
:100470005BE781F0004158E72DE9FE4F81EA030474
:1004800004F0004421F0004100944FF0000B23F0F1
:10049000004350EA01045ED052EA03045BD0C3F388
:1004A0000A54C1F30A552C44A4F2F3340194A0FB7E
:1004B0000254C1F3130141F48011C3F3130343F455
:1004C000801301FB024400FB034E840A970A44EAAE
:1004D000815447EA8357A4FB076802958D0A05FB00
:1004E00007854FEA932C04FB0C542705029D4FEA25
:1004F000065847EA1637B5EB08056EEB070C870E72
:10050000920E47EA811742EA8312A7FB0201B6EB7B
:100510000B0164EB00042B0D43EA0C335E1844EB33
:100520001C50DA465146E7FB0201C5F313044FEABB
:100530000B3343EA14534FEA0432019C43EA0603A7
:10054000A4F10C040294009CCDE900B400F0D9F8A9
:1005500003B0BDE8F08F00200146F9E72DE9F04D2A
:1005600081EA030404F0004B21F0004514464FF0EB
:10057000000A23F0004150EA050220D054EA0102AB
:100580001DD0C5F30A570246C5F31303C1F3130088
:10059000C1F30A5640F4801543F48013A7EB060814
:1005A000101BD64608F2FD3873EB050002D308F1A4
:1005B000010801E092185B41B8F1000F03DA002056
:1005C0000146BDE8F08D00204FF4801106468446B8
:1005D0000EE0171B73EB050705D3121B63EB050336
:1005E00006434CEA010C49084FEA300092185B417F
:1005F00050EA0107EDD152EA030012D082EA04006A
:1006000083EA0501084305D0101BAB4106D2012245
:10061000002306E000224FF0004302E06FF00102E9
:1006200053101AEB06004CEB085110EB0A0041EB9B
:100630000B01BDE8F04D00F055B8C1F30A52C1F30B
:10064000130140F2FF3341F480119A4202DA002094
:100650000146704740F233439A42A2F2334202DC31
:100660005242FFF752BEFFF741BE000030B5041EF4
:1006700071F1000404DB4FF00044404264EB0101DF
:10068000141E73F1000405DB1C464FF00043524278
:1006900063EB0403994208BF904230BD064C074DFE
:1006A00006E0E06840F0010394E807009847103442
:1006B000AC42F6D3FFF772FD6C9200088C920008F2
:1006C000202A06DBCB17203A41FA02F043EAE07316
:1006D00006E041FA02F3D040C2F120029140084303
:1006E0001946704710B5141E73F1000408DA401C57
:1006F00041F1000192185B411A4301D120F0010041
:1007000010BD2DE9F04D92469B4611B1B1FA81F230
:1007100002E0B0FA80F220329046FFF7E7FD04468F
:100720000F4640EA0A0041EA0B0153465A46084385
:1007300013D0114653EA010019D0C8F140025046C7
:10074000FFF7E3FD05460E46504659464246FFF781
:10075000CDFD084305D0012004E020463946BDE820
:10076000F08D0020054346EAE0762C4337430A9893
:100770006305E40AA0EB08000022FD0A44EA47549E
:100780000A3002D500200146E9E701051019694148
:10079000DDE9084500196941BDE8F04DA2E7000018
:1007A00080B50146806B036C026C13F0500F06D0CD
:1007B000D2060FD4806BC26C0846904780BD42F4CD
:1007C0000071016401688A6812F0405F05D000F092
:1007D0000BFA80BD00F046FA80BD027E002AF6D1F9
:1007E000CA6A12F4700F02D08A685205EFD44A68C0
:1007F00022F020024A60016C21F480710164016CD6
:10080000C904E4D4016C41F00101016400F0ECF989
:1008100080BD000080B5806B40210164416C41F0D7
:100820000401416400F01EFA80BD000080B5806BB9
:1008300000F016FA80BD000010B542F20432C4F296
:100840000102116821F440311160D2F800C090E833
:100850000A4043EA0C03C46813604A6822F48072B9
:100860004A6002694B6843EA02224A604A6822F001
:1008700040724A604A6842EA0E024A608A6822F47C
:1008800000628A608A6822438A60826A8B680124D7
:1008900023F070638B608B68C0F60074A24202D1B3
:1008A00023F0405208E01A438A608A6822F04052DE
:1008B0008A60C26A8B681A438A608A6822F00202E0
:1008C0008A608A68037E90F8204042EA43028A6088
:1008D0004A6884B142F400624A604A684EF20003FA
:1008E00022F460424A60426ACFF6FF734C6803EB21
:1008F0004232224301E022F400624A60CA6A40F2B6
:10090000000C22F47002CA62C3694269CFF6F07C1F
:10091000CC6A0CEB03532343CB628B6823F4007344
:100920008B6090F830008B6843EA402088608868CC
:1009300020F480608860886840EA8220886010BD6A
:1009400080B542F2E44041F65071C2F20000C2F2BA
:1009500000014FF4B07200F009FA80BD002070472A
:10096000002070470020704700207047002070472B
:100970000020704770B50546D0F8BC020C4641F621
:10098000E431461830464021FFF758FCE2882846FB
:10099000314603F071FB70BDF0B581B0CA8882B1F9
:1009A000D0F8BC5241F6E336AF190C46791C03F07F
:1009B00049FB0120A855A079617987F8410087F8A3
:1009C000421001B0F0BD000000207047FEE70000BB
:1009D00080B542F22C50C2F2000000F0ADFA80BDAA
:1009E000D0F800C06FF00F024AF6AB2352FA8CF237
:1009F000CAF6AA230146A2FB0330000905A31B5C2B
:100A000040F2FF302CEA00005F2A88BF0430C1E9C1
:100A10001603704700061016000610168269816AD8
:100A2000B2F5005F06D06AB9022912D0012914D0AC
:100A3000D1B90EE0032917D8DFE801F0020B020F4D
:100A40000120704703293CBF012070471CBF0020D4
:100A50007047C06AC0F300607047C06AA0F1C07000
:100A6000B0FA80F0400970470020704780B5D0F898
:100A700000C0D0F808E0DCF80000BEF1400F20F420
:100A80008020CCF800000846CCF8043004BF1046A3
:100A90000A46CCF80800CCF80C2080BD7047000056
:100AA000EFF3108072B600BFFEE70000B0B547F666
:100AB0001021C1F6FF7108688A68801808BFB0BDB0
:100AC00040F20015C2F200054C68A91C082202F091
:100AD000D9FA05F112012046042202F0D3FAB0BD82
:100AE00070B581B00022009290F83C20012A01D11B
:100AF000022156E00E6801221FFA86FC80F83C2095
:100B00004FEA4C0212FA86F302680A2E32BF103204
:100B10001E3B0C324FF0070E15680EFA03F4A54386
:100B200015608D68146805FA03F323431360496860
:100B3000062906D8026801EB8101053902F1340368
:100B40000AE00C2901EB8101026887BF413902F1FB
:100B50002C03233902F130031F221C688A4024EA47
:100B600002021A601A680CFA01F1114342F2043EC3
:100B70001960C4F2010E0168122EAEF5417208BF71
:100B8000914205D1DEF8003043F48003CEF8003006
:100B900026F00103102B08BF914205D0002180F8F8
:100BA0003C10084601B070BDDEF80010102E41F474
:100BB0000001CEF80010F1D140F22001C2F2000194
:100BC00009684DF68362C4F21B32A1FB0212910C3C
:100BD00001EB8101490000BF009100990029DDD09F
:100BE00000990139F8E7000010B542F21420C2F272
:100BF0000000D0F8BC0241F6E231415C2C2211FB2E
:100C0000020041F68A3141F650724EF2565C00EB1A
:100C1000010E0021C2F20002CFF6FF7C00236FF02C
:100C2000010000BF1418B4F9024002301E2823440A
:100C3000F8D1D81703EB90700CEB90002EF8110050
:100C40000131162902F12002E8D1BEF8000041F678
:100C5000AA21084442F65051C2F20001088010BD9A
:100C60007047000070470000B0B510B30446006C38
:100C700030B9204600F020F80020606484F83C0081
:100C8000206C0125C0060FD4206C41F2021188436C
:100C9000023020642046FFF7CFFD00206064206C06
:100CA00065F3010000252064002084F83C002846FC
:100CB000B0BD0120B0BD000070B586B0002604466E
:100CC0000596CDE9036642F200002168C4F20100F6
:100CD00081420296019601D006B070BD43F6300104
:100CE0000096C4F202014A6900F5604042F4807245
:100CF0004A614A6902F480720092009A00960A687A
:100D000042F001020A60096801F0010100910099B6
:100D1000042101910321CDE9021601A900F080FA16
:100D200042F22C5546F21040C2F20005C4F2020015
:100D30004FF48061C5E9000605F110004FF4006230
:100D40004FF400534FF4807CC5E9026680E80E1032
:100D50002846C5E9086600F0B5F9002818BFFFF776
:100D60009FFEA563AC6306B070BD000070B582B095
:100D700004460020019094F83C00012802D1022092
:100D800002B070BD13460A460120216884F83C0079
:100D90008868C00718D188684DF6836540F0010067
:100DA000886040F22000C2F200000068C4F21B35E7
:100DB000A0FB0505A80C00EB400000BF01900198C6
:100DC00010B101980138F9E78868C00503D5886833
:100DD00020F4807088608D68206CED0707D140F0AA
:100DE00010002064606C40F0010060644FE040F24D
:100DF0000175A84300F5807020644868400504D55B
:100E0000206C012565F30D302064256C0020ED0475
:100E10004FF0000544BF656C25F00605656484F855
:100E20003C00A06B40F2A17540F62D0CC0F6000509
:100E3000C0F6000CC0E90F5C40F61505C0F60005D1
:100E4000C5646FF022050D604D6842F2000645F062
:100E500080654D608D68C4F2010645F480758D6033
:100E60004C3100F097F9D6F804132068C90606D073
:100E7000B0420CD1B16811F0405F08D103E0816845
:100E800011F0405F03D1816841F080418160002012
:100E900002B070BD70B5866D044600F09BFA94F800
:100EA0003510022925D105462068216C026822F000
:100EB00016020260426922F08002426109B9A16C07
:100EC00019B1016821F008010160016821F00101F8
:100ED000016000BF20680068C0070ED000F07AFAF9
:100EE000401B0628F6D320206065032084F83500D7
:100EF0000CE080206065012008E0E06D3F2101FAF0
:100F000000F0B060012084F835000020002184F852
:100F1000341070BD90F83510022909D1052180F8F0
:100F200035100068016821F0010101600020704760
:100F30008021416501207047F0B581B00446002052
:100F4000009040F22000C2F200000268D4E916606E
:100F500048F2B51337680821C1F64E338140394253
:100F6000A2FB03250CD0226813685B0708D5136821
:100F700023F004031360B160616D41F0010161650C
:100F800001218140394208D022685269120604D5F5
:100F9000B160616D41F00201616504218140394217
:100FA00008D022681268920704D5B160616D41F0E3
:100FB0000401616510218140394215D02068026822
:100FC000120711D5B16002680168520306D4C90541
:100FD00006D4016821F00801016001E0080342D451
:100FE000216C09B120468847E16D202000FA01F20A
:100FF0003A4244D020680368DB0640D5B26094F8DA
:1010000035300268052B1ED122F0160202604269BB
:1010100022F080024261226C0AB9A26C1AB1026805
:1010200022F0080202603F208840B060012084F86E
:101030003500216D0020002984F8340040D020467E
:10104000884701B0F0BD0168520310D4C90512D41D
:10105000016821F010010160012084F835000020B2
:1010600084F8340007E0A16C0029BBD1BCE7080379
:1010700001D4616C00E0E16B09B120468847606DE6
:10108000F0B1606DC00717D0052084F835002068E6
:10109000A90A026822F00102026000BF009A013230
:1010A0008A42009202D80268D207F7D1012084F860
:1010B0003500002084F83400E16C09B120468847EF
:1010C00001B0F0BD2DE9F041044600F083F9C4B150
:1010D0000546022084F835000020216884F8340099
:1010E000086820F00100086026683068C0070BD04F
:1010F00000F070F9401B0528F6D9032120220320B7
:1011000042E00120BDE8F081306848F23F01CFF2B3
:101110001001251D00EA010C2ECDD4E9050E41EA8F
:101120000C01114319432943D4E90778084340EAE5
:101130000E01606A3943042841EA080103D1D4E969
:101140000B231143194331607169042821F0070111
:1011500041EA00050CD1D4E90A1045EA010538B18D
:101160002046FFF75BFC18B10121402201200BE073
:1011700020467561FFF734FCE16D3F2202FA01F170
:101180008160002201210020626584F83510BDE8ED
:10119000F0810000B0B5044690F83400012828D052
:1011A000012084F83400A56D94F8350001281DD184
:1011B000022084F83500002060652046FFF756FCC9
:1011C000E26D3F23206803FA02F2216CAA600268F4
:1011D00042F01602026019B1016841F00801016095
:1011E000016841F0010101600020B0BD002084F8D9
:1011F00034000220B0BD0000B0B5044600F0EAF8AB
:10120000054640F21A10C2F200000078611C18BFB7
:10121000044400BF00F0DEF8401BA042FAD3B0BD8A
:101220002DE9F04F83B000F13E4202F1FF724FEA28
:10123000B22241F200070192C4F2020707224FF0E6
:10124000010E00254FF0000A4FF00008B84208BF19
:10125000042200920AE000BF08F101080AF1040A22
:10126000B8F1100F05F1020500F0A2800C680EFA2B
:1012700008FB14EA0B09EFD04C6804F0030CACF146
:10128000010EBEF1010F11D80322876802FA05F69C
:10129000CA68B743AA403A4382604268C4F3001761
:1012A00022EA0B0207FA08F73A434260BCF1030F47
:1012B0001CD0C26803238E6803FA05F7BA4306FA06
:1012C00005F73A43BCF1020FC2600FD16FF0030281
:1012D00002EA580202440AF01C060F23176A03FAB6
:1012E00006F40B69A743B3403B4313620268032330
:1012F0004F68AB409A4307F00303AB401A4317F41F
:10130000403F4FF0010E0260A6D0002243F6440396
:101310000292C4F202031A6843F6004442F4804287
:101320001A601A68C4F2010402F480420292029A1E
:1013300028F003024FF6084B2244CFF6FF7B52F809
:101340000B300AF00C070F26BE4023EA060C019B67
:10135000009E042B38BF1E4606FA07F747EA0C0327
:1013600042F80B3022684B6842EA0907DE0358BF97
:1013700022EA0907276062689E0342EA090758BF0C
:1013800022EA09076760A268DE0242EA090758BF3D
:1013900022EA0907A76043F60C47C4F201073A683E
:1013A0009B0242EA090358BF22EA09033B6053E764
:1013B00003B0BDE8F08F0000426902EA01039143E7
:1013C00041EA034181617047002A08BF0904816135
:1013D0007047000042F65870C2F200000068704783
:1013E00040F21A1042F65871C2F20000C2F2000137
:1013F00000780A68104408607047000080B543F622
:101400000040C4F20200016841F40071016001680B
:1014100041F480610160016841F480710160032042
:1014200000F060F80F2000F005F800F02BF8002025
:1014300080BD0000B0B540F21A12C2F2000240F2C4
:1014400020011278C2F200014FF47A730968B3FBED
:10145000F2F20446B1FBF2F1084601F061F90F2CFB
:101460004FF001050CD858B94FF0FF30214600224B
:10147000002500F027F840F21C10C2F200000460C2
:101480002846B0BD82B0002043F640010190C4F26E
:1014900002014A6842F480424A604A6802F480428B
:1014A0000192019A0090086840F080500860086836
:1014B00000F080500090009802B0704780B504F0B2
:1014C0007DF880BD70B514460D46064604F086F8DA
:1014D0002946224601F0BAFF0146304604F086F85C
:1014E00070BD000080B504F093F880BD7047000027
:1014F000026800205162704710B5D0F800C0DCF8D7
:101500002400D9B1DCF82830B1F1010E00EB13430F
:101510000CD00021002000BF0CEB8101D1F8044168
:101520000130C1B28E4503EB1443F5D843EA0240C3
:101530000CEB8E01C1F80401002010BD40EA02400E
:10154000CCF82800002010BD80B5D0F8040402F0CB
:10155000C3FF80BD80B5C1EBC102D0F8043400EBFD
:101560008200826C184602F02DFF80BD80B5C1EB71
:10157000C102D0F8043400EB8200D0F808221846EB
:1015800002F074FF80BD000080B5D0F8040402F0C2
:10159000A5FF80BD10B50446080601F00F00C0EBA2
:1015A000C00104EB810205D402F5FE71002382F82C
:1015B000FD3104E0012302F13C0182F83D3094F852
:1015C000BC230870012A04BF022010BD206801223C
:1015D00084F8BC2303F04CFB002084F8BC0310BD4E
:1015E000B0B54268044601F00F00904284BF01206C
:1015F000B0BD090609D4C0EBC00104EB810202F5BD
:10160000FE71002382F8FD3108E0C0EBC00104EB5D
:101610008102012302F13C0182F83D3094F8BC23A1
:101620000025012A8D70087004BF0220B0BD20681B
:10163000012284F8BC2303F0E5FC284684F8BC535F
:10164000B0BD000010B5044690F8BC03012804BFEB
:10165000022010BD206801220B0684F8BC2302D4AE
:1016600003F0FAFD03E001F00F0103F00DFE00208E
:1016700084F8BC0310BD000001F00F01C1EBC101F3
:1016800000EB8100D0F8140270470000B0B50546A9
:10169000080601F00F00C0EBC00105EB810C05D47A
:1016A0000CF5FE7100248CF8FD4104E001240CF1DE
:1016B0003C018CF83D404C780870002C8A60CB705F
:1016C00018BFC880022B04BF0020087195F8BC0326
:1016D000012804BF0220B0BD2868012285F8BC2380
:1016E00003F00CFA002085F8BC03B0BD10B501F082
:1016F0000F0CCCEBCC0100EB81044FF0000EC4F8D2
:1017000014E284F8FDE1D0F810E0C4F80822C4F82F
:101710001032BEF1010F84F8FCC108BFC4F80C22DE
:10172000006804F5FE715FFA8EF2BCF1000F03D081
:1017300003F0B8FC002010BD03F0BCFB002010BD7E
:10174000B0B50446406801F00F05854284BF012012
:10175000B0BD080609D4C1EBC10004EB800000F560
:10176000FE71002280F8FD2108E0C5EBC50004EB06
:101770008000012200F13C0180F83D2094F8BC0378
:10178000012201288A700D7004BF0220B0BD2068BC
:1017900084F8BC2303F05EFC2DB92068217C04F59D
:1017A000717203F001FC002084F8BC03B0BD00009E
:1017B000B0B501F00F0CCCEBCC0100EB8105294654
:1017C00001F83CCF0024D0F810E08C6101244C706B
:1017D000CA60BEF1010F4B6108BFEA6400685FFA9E
:1017E0008EF2BCF1000F03D003F05CFC0020B0BD12
:1017F00003F060FB0020B0BD2DE9F04F81B0D0F8C0
:1018000000908246484603F065FD10B101B0BDE886
:10181000F08FDAF8000003F08BFD0028F6D0DAF83C
:10182000000003F085FD800705D5DAF80000416966
:1018300001F002014161DAF8000003F079FDC00611
:1018400041D5DAF80000816921F010018161D9F8F1
:101850002050C5F34340062805F00F041CD0022891
:101860002BD147F6F070054027D0C4EBC4000AEB3B
:101870008004D4F808122A09484603F05DFDD4F824
:101880000802D4F8141200EB1510C4F8080201EB9A
:101890001510C4F8140210E00AF5717148460822C8
:1018A00003F04AFDC4EBC4010AEB8101C5F30A1041
:1018B000D1F814221044C1F81402DAF8000081694A
:1018C00041F010018161DAF8000003F031FD0003FE
:1018D0003CD5DAF8000003F009FDB8B3064609F577
:1018E00030654FF000084FF0010B002715E000BFF6
:1018F000E00644BF1020A860A00644BF2020A860D6
:10190000A00444BF4FF40050A8600137B8EB560F55
:101910004FEA560605F1200518D0F007F5D0DAF8A1
:101920000000F9B203F0FCFC0446C00705D05046A5
:101930003946C5F808B001F0CDFD2007D8D50820FC
:10194000A8605046394601F09FFDD1E7DAF8000063
:1019500003F0EEFC400364D5DAF8000003F0BEFCAF
:1019600000285ED006460AF5717009F510640AF188
:1019700044080025002700900AE000BF0137B5EBBE
:10198000560F4FEA560604F1200408F11C0848D00F
:10199000F007F3D0DAF800005FFA87FB594603F04E
:1019A000ADFC0546C00723D007F00F00D9F8341866
:1019B000012202FA00F021EA0000C9F83408A2600E
:1019C000DAF8100001280FD1D8E900010844C8F85E
:1019D00004004FB9D8F80C0030B9DAF80000009ACA
:1019E000012103F0E1FA00BF50465946FFF7B2FD6E
:1019F000280744BF0820A060E80644BF1020A0606C
:101A0000680644BF4020A060A80744BF0220A06031
:101A100028064FF00005B1D55046394601F0C2FD09
:101A2000ACE7DAF8000003F083FCB0F1FF3F1ADC0A
:101A3000D9F8040820F00100C9F804089AF8F40362
:101A4000012807D100208AF8F40350460021FFF74F
:101A50004DFD02E0504600F0FDF9DAF80000416962
:101A600001F000414161DAF8000003F061FC00057B
:101A70000CD5D9F80808C00702D0504600F034FA57
:101A8000DAF80000416901F400614161DAF8000010
:101A900003F04EFCC00460D5D9F80408102120F0F2
:101AA0000100C9F80408DAF8000009F5006403F041
:101AB000EBFBDAF8040018B3DAF8041009F510604B
:101AC00000224FF67F3300BF83600768013227F49E
:101AD0000017076007688A4247F000670760C0F890
:101AE0000832D0F8007227F40017C0F80072D0F85E
:101AF000007247F00067C0F8007200F12000E3D3E5
:101B0000E06940F00110E061DAF8300040B1D4F84B
:101B1000840040F00B00C4F8840004F1440006E0A7
:101B2000606942F22B010843606104F11000016812
:101B30000AF5717241F00B010160206820F4FE602B
:101B40002060DAF800009AF8101003F02DFADAF8A5
:101B50000000416901F480514161DAF8000003F0AE
:101B6000E7FB80041CD5DAF8000003F00FF8DAF880
:101B7000000003F0A1FBDAF80040CAF80C0000F006
:101B80007DFA9AF80C200146204603F049FC5046A5
:101B900000F04EF9DAF80000416901F400514161AA
:101BA000DAF8000003F0C4FB000708D5504600F047
:101BB00057F9DAF80000416901F008014161DAF8EB
:101BC000000003F0B5FBC00209D55046002100F02B
:101BD0003DF8DAF80000416901F480114161DAF85A
:101BE000000003F0A5FB800209D55046002100F05B
:101BF00033F8DAF80000416901F400114161DAF8C4
:101C0000000003F095FB400008D55046FFF79CFC10
:101C1000DAF80000416901F080414161DAF8000022
:101C200003F086FB40077FF5F1ADDAF80000446869
:101C3000600702D55046FFF7A7FCDAF800004168BC
:101C40002143416001B0BDE8F08F000080B5D0F8BD
:101C5000040402F0A5FC80BD80B5D0F8040402F0B5
:101C6000AFFC80BD2DE9F04F8BB098B304460568FA
:101C700090F8BD0328B9002084F8BC03204600F08A
:101C800093F8032084F8BD03E86BC0055CBF002017
:101C90002061206803F006F9206804F11C0A0A900C
:101CA000D4E90C5004F1040E9AE8C0079EE80E58DF
:101CB000CDE9085003A88DE8005880E8C0030A98D1
:101CC000CDF81CA002F072FF30B1022084F8BD03F1
:101CD000012564E0012562E020680021002503F071
:101CE00051FB6168C1B1616801200023002200BF7F
:101CF000C3EBC30304EB830787F83C20D3B2013264
:101D0000A7F84230D3B2994287F83D0087F83F5098
:101D1000C7E911553D65EBD8A1B100200023002291
:101D2000C3EBC30304EB830787F8FC210132D3B272
:101D3000994287F8FD0187F8FF01C7E98100C7F8DC
:101D40001002EDD8A06804F1140E0A90D4E90C50EA
:101D50002268D4E903379EE8405804F1240A9AE83F
:101D60000007CDE9085002A8CDE9007680E80058C8
:101D700010460A9ACDE90589CDF81CA002F0E0FFD3
:101D800020B1022084F8BD03012508E000250120D0
:101D900084F8385084F8BD03206802F0C1FF28465B
:101DA0000BB0BDE8F08F0000B0B586B000240594FC
:101DB000CDE9034400680294B0F1A04F019401D032
:101DC00006B0B0BD43F630050094C4F202052868A1
:101DD00001A940F001002860286800F0010000908F
:101DE00000984FF4C05001900220CDE90204032076
:101DF00004900A2005900020C4F20200FFF710FAB8
:101E00006868002140F080006860009468690022E2
:101E100040F480406861686900F480400090009858
:101E20004320FFF74FFB4320FFF748FB06B0B0BD50
:101E300010B50446C068022818BFFEF731FED4F87A
:101E40000404012102F02CFCD4F8040402F0DCFBB1
:101E500010BD000080B5D0F8040402F007FC80BD7E
:101E600080B5D0F8040402F00BFC80BD10B5044628
:101E700090F8BC03012804BF022010BD012084F8A3
:101E8000BC0384F83810206803F0B0FA002084F80E
:101E9000BC0310BD80B5D0F8042400F57171104664
:101EA00002F00AFC80BD000010B5044690F8BC03A7
:101EB000012804BF022010BDA16A20680122012967
:101EC00084F8BC2306D1A169012903D0816B41F4B8
:101ED0008031816303F0B8F9206802F011FF00201F
:101EE00084F8BC0310BD000010B50446D0F804040B
:101EF00002F01EFC2068D0F8001E41F00101C0F87D
:101F0000001E206A002808BF10BD4EF61050CEF209
:101F10000000016841F00601016010BD2DE9F041AB
:101F2000002800F08B8043F60808C4F2020804463B
:101F3000D8F8F8030D4600F00700884207D288F869
:101F4000F853D8F8F80300F00700A84276D12068CB
:101F5000810717D5410705D5D8F8001041F4E051A5
:101F6000C8F80010010705D5D8F8001041F4604109
:101F7000C8F80010D8F80010A26821F0F001114351
:101F8000C8F80010C0073FD1D8F8F80300F00700E8
:101F9000A84207D988F8F853D8F8F80300F00700EA
:101FA000A8424BD12068410707D5D8F80010E26855
:101FB00021F4E0511143C8F80010000708D5D8F803
:101FC0000000216920F4604040EAC100C8F8000028
:101FD00000F07EF8D8F8001048F22872C1F303111F
:101FE000C0F60002515C40F2200220FA01F140F2FA
:101FF0001C10C2F200000068C2F200021160FFF77C
:1020000019FA0020BDE8F0816068811E022907D21C
:1020100058F8081C89015CBF0120BDE8F08110E080
:10202000012807D158F8081C89035CBF0120BDE8CE
:10203000F08106E058F8081C890702D40120BDE8A9
:10204000F081D8F8001021F003010843C8F800001F
:10205000FFF7C0F9064641F2883700BFD8F8000004
:10206000616800F00C00B0EB810F8DD0FFF7B2F982
:10207000801BB842F2D90320BDE8F08140F2200075
:10208000C2F200000068704780B5FFF7F7FF43F623
:102090000801C4F20201096848F23872C1F38221D2
:1020A000C0F60002515CC84080BD000080B5FFF75B
:1020B000E5FF43F60801C4F20201096848F23872EC
:1020C000C1F34231C0F60002515CC84080BD00003F
:1020D00010B543F60404C4F20204606800F00C007A
:1020E00008280AD0042819BF42F20040C0F2F400C8
:1020F00047F64000C0F27D1010BD206821682368BB
:10210000490247F64001C0F27D1100F03F02C3F3DF
:1021100088105CBF42F20041C0F2F401A1FB000153
:102120000023FEF753F821680222C1F3014102EBBC
:102130004101B0FBF1F010BD2DE9F04182B0002863
:1021400000F09F800446007843F60006C007C4F202
:10215000020641D0B06800F00C00042805D13068B8
:10216000800339D56068B8BB8BE0B06800F00C0024
:10217000082802D170684002F1D46568B5F5803F47
:1021800006D03068B5F5A02F06D140F4802030602D
:10219000306840F4803005E020F4803030603068F2
:1021A00020F480203060FFF715F9002D054610D08F
:1021B0003068800310D4FFF70DF9401B6428F7D96D
:1021C00022E100BFFFF706F9401B64284FF003002F
:1021D00054D830688003F5D4207880071AD5B068C9
:1021E00010F00C0F09D0B06800F00C00082840F087
:1021F0008C807068400200F188803068800702D5CA
:10220000E06801283DD13068216920F0F80040EAFB
:10221000C10030602078000737D4207840074AD4C6
:10222000A56955B3B06800F00C00082840F0A08004
:10223000012D26D07068E16900F480028A4220D125
:10224000216A00F03F028A421BD147F6C071626AE0
:102250000140B1EB821F14D1A16A4FF6FF73C9038D
:10226000994300F44032A1F580318A4209D1E16AF4
:1022700000F07060B0EB016F03D1002002B0BDE848
:10228000F081012002B0BDE8F0816069002840F2D1
:102290000000C4F247205AD00121C0F8801EFFF789
:1022A00099F80546706F8007B7D4FFF793F8401B85
:1022B0000228F7D9A8E0306C4FF00008C0000CD419
:1022C000CDF80480306C4FF0010840F0805030644D
:1022D000306C00F080500190019847F20007C4F282
:1022E00000073868C00525D4386840F4807038602D
:1022F000FFF770F8054600BF3868C0051AD4FFF72D
:1023000069F8401B0228F7D97EE0E068002851D028
:102310000020C4F2472001210160FFF75BF8054669
:10232000306880073FF56FAFFFF754F8401B022875
:10233000F6D969E0A568012D05D0306F052D4DD186
:1023400040F004003067306F40F001004CE00021A5
:10235000C0F8801EFFF73EF8054600BF706F80078B
:102360007FF55BAFFFF736F8401B0228F6D94BE04C
:102370000027C4F2472700203866FFF72BF8022D0C
:1023800005460BD13068800156D5FFF723F8401B76
:1023900002284FF00300F5D970E700BF30688001D4
:1023A0007FF56BAFFFF716F8401B02284FF00300D4
:1023B000F4D963E70020C4F2472000210160FFF751
:1023C00009F80546306880077FF524AFFFF702F86B
:1023D000401B02284FF00300F4D94FE720F0010022
:1023E0003067306F20F004003067FEF7F3FF002DF8
:1023F000054641F2883713D0306F800713D4FEF7BB
:10240000E9FF401BB842F7D9032002B0BDE8F081D4
:10241000FEF7E0FF401BB8424FF003003FF62EAF3F
:10242000306F8007F4D4B8F1000F3FF4F9AE306C90
:1024300020F080503064F3E604F11C052FCD0843F2
:1024400040EA8210D9034FF6FF729143A1F5803123
:1024500040EA05600843706001203866FEF7BAFF65
:10246000044600BF306880013FF507AFFEF7B2FFBA
:10247000001B02284FF00300F4D9FFE670B538B115
:102480000446406A30B10020206104F1140007E0E6
:10249000012070BD6068B0F5827F03D004F11C009C
:1024A000002101600026A66294F8510020B9204660
:1024B00084F8506000F03CF8022084F8510094E861
:1024C0000F0001F48271056802F4044225F0400512
:1024D0000560114403F400622369114403F0020211
:1024E0006369114403F00102A369E569114403F42F
:1024F0000072114405F03802256A114405F080028B
:10250000A56A114305F4005211430160626A042177
:1025100001EA134102F0100211444160C16921F443
:102520000061C1610120666584F85100304670BDCC
:1025300080B586B000220592CDE9032243F2000166
:102540000068C4F2010188420292019201D006B0F3
:1025500080BD43F630000092C4F20200436943F4A8
:1025600080534361436903F480530093009B0092BE
:10257000036843F001030360006800F0010000906D
:102580000098A02001900220CDE9020203200490CF
:102590000520059001F5504001A9FEF741FE06B067
:1025A00080BD00002DE9F04381B0044690F8500052
:1025B000012803D1022001B0BDE8F0834FF00109EA
:1025C0001D4616460F4684F85090FEF703FF94F818
:1025D000511001295DD18046002F4FF0010018BF36
:1025E000002E00F09580032084F8510000206065E3
:1025F0002763A686E686A063A087E087A168C4E972
:102600001000B1F5004F08D12068016821F04001A9
:102610000160016841F48041016020680168490659
:1026200003D4016841F0400101606168731EE268F3
:10263000B1FA81F1B3FA83F349095B09B2F5006F8E
:1026400041EA030127D139B1216B0988C160B81C67
:102650002063E08E0138E086E08E002841D06E1CB9
:102660000AE000BF216B31F8022BC2602163E08ECB
:102670000138E086E08EA0B3206881688907F1D434
:10268000FEF7A8FE002EF5D0A0EB0800A842F1D37B
:1026900025E002203CE039B139780173206B01302C
:1026A0002063E08E0138E086E08ED0B16E1C0AE037
:1026B000216B09780173206B01302063E08E0138B3
:1026C000E086E08E68B1206881688907F0D4FEF763
:1026D00081FE002EF5D0A0EB0800A842F1D3032024
:1026E00016E020462946424600F0C2FF00281CBFE3
:1026F00020206065A06838B9002000902068C1687B
:102700000091806800900098606D002818BF01203B
:10271000002184F8519084F8501001B0BDE8F08396
:1027200080B501F043F880BD70470000704700009D
:1027300010B590F83C20012A4FF0020240D001234E
:1027400080F83C3080F83D200268D2F804E0D2F8EE
:1027500008C00C682EF07003234340F6FF34C4F227
:102760000004A24253600FDCB2F1804F1DD040F252
:102770000043C4F200039A4217D040F60003C4F2AB
:1027800000039A4211D015E040F60043C4F2000362
:102790009A420AD044F20003C4F201039A4204D0E0
:1027A0000023C4F201039A4204D149682CF080034B
:1027B000194391600121002280F83D1080F83C20EF
:1027C000104610BD002804BF0120704710B5044614
:1027D00090F83D0028B9002084F83C00204600F025
:1027E0001FF8022084F83D002068211D01F05EF8EA
:1027F000012084F8460084F83E0084F83F0084F805
:10280000400084F8410084F8420084F8430084F8D2
:10281000440084F8450084F83D00002010BD00000D
:1028200080B582B0006840F20041C4F200018842E5
:102830001BD0B0F1804F27D10020019043F640001B
:10284000C4F202000168002241F001010160006849
:10285000002100F00100019001981C20FEF732FEDB
:102860001C20FEF72BFE02B080BD0020009043F636
:102870004000C4F20200016841F0020101600068FA
:1028800000F002000090009802B080BD90F83D106A
:1028900001291CBF01207047022180F83D1000680B
:1028A00040F6FF31C4F2000188420FDCB0F1804FE6
:1028B0001DD040F20041C4F20001884217D040F61A
:1028C0000001C4F20001884211D017E040F6004137
:1028D000C4F2000188420AD044F20001C4F20101AE
:1028E000884204D00021C4F20101884206D18168E7
:1028F00001F00701062904BF00207047016841F07C
:10290000010101600020704790F83D1001291CBFB3
:1029100001207047022180F83D10006840F6FF3228
:10292000C168C4F20002904241F00101C1600FDCB5
:10293000B0F1804F1DD040F20041C4F20001884246
:1029400017D040F60001C4F20001884211D017E010
:1029500040F60041C4F2000188420AD044F200016E
:10296000C4F20101884204D00021C4F2010188426E
:1029700006D1816801F00701062904BF00207047D5
:10298000016841F0010101600020704710B5044664
:1029900090F83C0001284FF0020008BF10BD012252
:1029A00084F83C2084F83D0020684FF677738268F5
:1029B0009A4382600A684F2A0FDC1F2A22DD202AF0
:1029C00023D0302A21D0402A4DD14B68CA681946FD
:1029D00000F0EEFF206840213BE06F2A17DDB2F5E2
:1029E000005F20D0B2F5805F2AD0702A3BD1D1E9B8
:1029F000012CCB68614600F0C7FF2068816841F078
:102A000077011AE00AB1102A2DD1114621E0502A8F
:102A100018D0602A27D14B68CA68194600F0DAFF3F
:102A20002068602115E0D1E9012CCB68614600F0F7
:102A3000ABFF2068816841F48041816000200BE099
:102A4000002009E04B68CA68194600F0B1FF206811
:102A5000502100F0A5FF0020012184F83D10002145
:102A600084F83C1010BD0120F6E70000704700001C
:102A700010B5044600680169890744BFC1685FEA70
:102A8000817138D420680169490744BFC1685FEA91
:102A900041713CD420680169090744BFC1685FEAFD
:102AA000017141D420680169C90644BFC1685FEA69
:102AB000C16145D420680169C9071CBFC1685FEACC
:102AC000C1714AD120680169090644BFC1685FEA43
:102AD000016149D420680169490644BFC1685FEAC1
:102AE000416148D420680169890644BFC1685FEA32
:102AF000816147D410BD6FF002010161012121778E
:102B00008069800745D02046FFF7B0FF47E06FF0AF
:102B10000401016102212177806910F4407F41D0D6
:102B20002046FFF7A3FF43E06FF008010161042195
:102B30002177C06980073ED02046FFF797FF40E02D
:102B40006FF01001016108212177C06910F4407F06
:102B50003AD02046FFF78AFF3CE06FF001010161A7
:102B6000204600F03FF8ADE76FF08001016120469C
:102B7000FFF7DAFDAEE76FF040010161204600F09B
:102B80003FF8AFE76FF0200101612046FFF7CEFD6F
:102B900010BD204600F022F8204600F021F8002069
:102BA00020776FE7204600F019F8204600F018F86B
:102BB000002020776EE7204600F010F8204600F055
:102BC0000FF8002020776DE7204600F007F8204638
:102BD00000F006F8002020776CE700007047000046
:102BE0007047000042F6EC11C2F20001884218BFA3
:102BF000704780B504F050F8BDE880407047000091
:102C000070470000704700007047000070B582B048
:102C1000036804461868D9685D6900F02F02202A0D
:102C200001F0200205D122B1204600F021FF02B0C0
:102C300070BD5FEA007C08D005F0010E11F4907FB2
:102C40008EF001054DD1002D4BD0226B0840C106FE
:102C50003DD5012A3BD100200190186801905868A9
:102C6000019001985869400600F19A80A08DE18D8D
:102C7000E28D002A1CBF401A5FEA004102D102B077
:102C800070BD00BF216851E8031F226821F49071D4
:102C900042E80313002BF5D1216851E8051F226893
:102CA00021F0010142E80513002BF5D1202184F821
:102CB0003E100021216300BF216851E8031F2268F4
:102CC00021F0100142E80313002BF5D1ACE001061E
:102CD00000F1B0804006D2D5204600F0BDFE02B023
:102CE00070BDC30718BF11F4807303D0236C43F089
:102CF0000103236400F00406012383EA96062E43B1
:102D000003D1266C46F00206266400F0020683EA30
:102D100056032B4303D1236C43F00403236452EA8C
:102D20000E0218BF0122BCF1000F04D51AB1226CAB
:102D300042F008022264226C002AA0D008408006DB
:102D400002D5204600F094FE20684069216C00F016
:102D5000400001F00801401876D0204600F054FEF3
:102D60002068406940066AD5206850E8050F216850
:102D700020F0400041E80502002AF5D1A06B0028B0
:102D80005DD043F6F911C0F600010165FEF7C2F807
:102D900000283FF474AFA06B016D884702B070BD8E
:102DA000A06B016849688AB2002A3FF468AFA38D1E
:102DB0009A42BFF464AFE185C069B0F5807F30D03E
:102DC000206850E8030F216820F4807041E8030276
:102DD000002AF5D1206850E8050F216820F0010095
:102DE00041E80502002AF5D1206850E8050F216866
:102DF00020F0400041E80502002AF5D1202084F8A7
:102E00003E000020206300BF206850E8030F2168C7
:102E100020F0100041E80302002AF5D1A06BFEF774
:102E200039F8A08DE18D401A81B22046FFF7EAFE05
:102E300002B070BD204600F005FF02B070BD204614
:102E4000FFF7E2FE02B070BD2046FFF7DDFE002076
:102E5000206402B070BD0000002804BF012070474C
:102E600010B5044690F83D0028B9002084F83C00D5
:102E7000204600F021F8242084F83D002068C16835
:102E800021F40051C160204600F054FE2068016921
:102E900021F490410161416921F02A014161C16839
:102EA00041F40051C16000202021206484F83D10CD
:102EB00084F83E1010BD000080B586B00022059257
:102EC000CDE9032241F200010068C4F20101884209
:102ED0000292019201D006B080BD43F6300000920C
:102EE000C4F20200436943F010034361436903F0F5
:102EF00010030093009B0092036843F001030360FA
:102F0000006800F00100009000984FF4C06001904C
:102F10000220CDE90202032004900720059001F56C
:102F2000704001A9FEF77CF9252000210022FEF760
:102F3000C9FA2520FEF7C2FA06B080BD10B590F898
:102F40003E30202B0BD100294FF0010418BF002A7E
:102F500001D1204610BD90F83C30012B01D1022058
:102F600010BD0123002480F83C30046300F050FEC3
:102F7000204610BD10B5006841F20001C4F2010105
:102F8000884218BF10BD42F6C024C2F20004217866
:102F900042F6C420C2F2000002F012FF42F67C208A
:102FA000C2F2000021460122FFF7C8FF10BD000059
:102FB0002DE9F04381B0044690F83D0020280BD164
:102FC0000E4600294FF0010055D01746002A52D076
:102FD00094F83C00012803D1022001B0BDE8F08341
:102FE000012084F83C004FF0000921201D46C4F860
:102FF000409084F83D00FEF7EDF9A784E784A168CE
:103000000746B1F5805F07D1206900281CBF304614
:103010004E46B046064601E04FF0000884F83C906A
:1030200007E000BF16F8010B21684860E08C01380A
:10303000E084E08C80B1204680213A462B4600F0A7
:103040002BFE80B9002EEDD138F8020B21686FF30A
:103050005F2048600026E9E7204640213A462B469B
:1030600000F01AFE18B1032001B0BDE8F083202063
:1030700084F83D00002001B0BDE8F08370470000F7
:10308000FEE7000010B5002A08BF10BD02394FF05E
:10309000370C4FF0000E00BF0CEB1074B0F1204F56
:1030A0004FEA107338BF03F1300401F8024F0001FA
:1030B000013A81F801E0EFD110BD0000B0B584B055
:1030C00042F2E4400024C2F2000042F200014FF05C
:1030D00080534FF00065C4F20101047680F820406F
:1030E000C0E90A530125CDE90244CDE900444FF47B
:1030F0004032C56180F8305080E81600C0E90344D2
:103100004561FDF7B1FD002818BFFDF7C9FC02209D
:10311000CDE9000542F2E440C2F2000069460294A3
:10312000FDF7DEFC002818BFFDF7BAFC04B0B0BD07
:1031300080B582B00020019043F63000C4F2020056
:103140000168002241F4800101600068002100F460
:103150008000019001983820FEF7B4F93820FEF77E
:10316000ADF902B080BD00002DE9F04786B0002423
:1031700043F630000594CDE90344CDE901440094C1
:10318000C4F20200016840F2004841F0040101600D
:103190000168C4F2020801F0040100910099009452
:1031A000016808F5806741F0800101600168002234
:1031B00001F0800100910099009401684FF40056DD
:1031C00041F001010160016801F0010100910099E5
:1031D0000094016841F00201016000684FF4005161
:1031E00000F00200009000983846FEF7EDF8A8F5D0
:1031F00080652846102100224FF0100AFEF7E4F8FF
:10320000404648F203010022FEF7DEF80DF1040902
:103210000196012638464946CDE902660494FDF739
:10322000FFFF28464946CDE901A6CDE90344FDF755
:10323000F7FF0320CDE9010640464946CDE90344A6
:10324000FDF7EEFF4FF40040CDE901064046494648
:10325000CDE90364FDF7E4FF06B0BDE8F0870000A8
:1032600080B542F6941043F20001C2F20000C4F2AD
:1032700001014FF4827200234FF4007C80E80E00BD
:103280000A21C0E90333C0E9053CC361C0E9083342
:10329000C0E90A31FFF7F2F8002818BFFDF700FC7B
:1032A00080BD000080B586B042F6EC100021C2F26D
:1032B00000004FF08042532340F2E73CCDE9041177
:1032C000CDE90211CDE90011C0E90023C0E9021CDB
:1032D000016180218161FFF775FA002818BFFDF7B1
:1032E000DFFB4FF48050029042F6EC10C2F2000077
:1032F00002A9FFF74BFB002818BFFDF7D1FB002008
:10330000CDE9000042F6EC10C2F200006946FFF77A
:103310000FFA002818BFFDF7C3FB06B080BD000000
:1033200080B586B042F6342040F200420021C2F25D
:103330000000C4F200026C23CDE90411CDE90211B2
:10334000CDE90011C0E90021C0E9021301618161EA
:10335000FFF738FA002818BFFDF7A2FB4FF48050A2
:10336000029042F63420C2F2000002A9FFF70EFBE1
:10337000002818BFFDF794FB20200090002001904A
:1033800042F63420C2F200006946FFF7D1F9002866
:1033900018BFFDF785FB06B080BD000080B542F682
:1033A0007C2041F20001C2F20000C4F201010023BE
:1033B0004FF00C0C4FF4E13280E80E00C0E903330B
:1033C000C0E905C3C361FFF747FD002818BFFDF73B
:1033D00067FB80BD80B542F2142040F20401C2F2C6
:1033E0000000C2F20001002200F0C4FF002818BF54
:1033F000FDF756FB42F2142040F22401C2F2000015
:10340000C2F2000101F0BAF9002818BFFDF748FB2D
:1034100042F2142040F2CC01C2F20000C2F20001DC
:1034200000F056FD002818BFFDF73AFB42F21420C9
:10343000C2F2000001F050FA002818BFFDF730FB7F
:1034400080BD0000FEE70000FEE7000000F007007E
:1034500080F00703042B28BF04234FF0FF3C033800
:103460000CFA03F338BF0020994381400CFA00F0B6
:1034700022EA00000843704780B542F28C50C2F245
:103480000000FEF7B9F980BD70B50446006843F24C
:103490000B06056C00EB4110D0F8081BC4F65476FF
:1034A000090406D5B54222BF00F530604FF4004153
:1034B00081602046FEF7EEFCB54209D32069012861
:1034C00018BF70BD206804F57172012101F06CFD18
:1034D00070BD000070B5044600680E4600EB411157
:1034E000036CD1F8082B256901F53061012D29D134
:1034F000150739D4950652D412F0280F18BF70BDA5
:1035000043F20B05C4F65475AB4202D312F40042E9
:1035100033D1C6EBC6020B6904EB8201D1E98125E8
:103520006FF3DF43D31A2A44C1F81432C1F80822DA
:10353000AEB9D1F8101291B904F57172012101F000
:1035400033FD0CE043F20B05C4F65475FF35AB4276
:1035500017D1100411D4900644BF20208860F1B226
:103560002046FEF703F870BD43F20B00C4F654701A
:10357000834213D312F4004010D04FF4004088600F
:1035800070BD3EB9D4F8101221B904F57172002152
:1035900001F00AFDF1B22046FDF7E8FF70BD2020E2
:1035A000886070BD2DE9F04F85B0C1EBC10200EB22
:1035B000820B5E4656F8507F344654F8043F9F42D3
:1035C00051D3039000685BF8442FA7EB03099145A2
:1035D00088BF9146049000EB411000F5106A0BF192
:1035E0000408CFB2029100BFDAF8180009F1030114
:1035F00080B2B0EB910F01D2002006E02068316864
:1036000088424FF0000038BF012031682268D8B1ED
:10361000DBF80000A1EB0209039A8145D8F80010FD
:10362000157C88BF814604981FFA89F33A460095B5
:1036300001F082FFD8F8000021684844C8F8000073
:1036400001EB09002060CFE7029891420BD8049B60
:1036500000F00F000121D3F8342801FA00F022EA2B
:103660000000C3F8340805B0BDE8F08F70470000D3
:1036700010B582B040F22003C2F200031B6849F685
:103680008174C1F25E64A3FB043C04464FEA5C50C3
:103690004FF47A73584301906068B0F5827F0DD182
:1036A00013460A462046802100F014F878B1606D78
:1036B00040F020006065032002B010BD019830B1D9
:1036C000019801380190206880680006F6D4002037
:1036D00002B010BD2DE9F04381B01E4690460D4664
:1036E0008146FDF777FE301A00EB0807FDF772FE02
:1036F00040F22001C2F200010968C1F3CB317943E5
:103700000091D9F8001089682940A94219D10646CC
:1037100008F1010406E000BFD9F8000080682840E5
:10372000A8420ED1002CF7D0FDF754FE801BB84202
:103730000BD200980099002808BF0746481E009049
:10374000EAE7002001B0BDE8F083D9E90001426852
:10375000B1F5827F22F0E00242600BD1D9F8081067
:10376000B1F5004F02D0B1F5806F03D1016821F0AF
:1037700040010160D9F82810B1F5005F07D1016858
:1037800021F400510160016841F400510160012001
:1037900089F85100002089F85000032001B0BDE8ED
:1037A000F08300007047000000887047B0B5013812
:1037B0000024B4EB106F1CBF0120B0BD4EF2100509
:1037C000CEF2000568604FF0FF300F2101F00EFFD0
:1037D0000720AC6028602046B0BD000080B5FDF732
:1037E000FFFD80BD70B592B006AC20463021FCF7DD
:1037F00025FD002543F640000595CDE90355CDE9AB
:1038000001550095C4F202000168022641F0805182
:103810000160006800F080500090009847F20000BE
:103820000095C4F20000016866F38F310160006802
:1038300000F4404000900098012006904FF4803042
:1038400007904FF480000D9019200E904FF4A8704F
:103850000F90042010900720119020460C96FEF740
:103860006BFC78B90F20CDE901064FF48050039529
:10387000CDE9040501A80221FEF750FB002804BF92
:1038800012B070BDFDF70CF94EF68850CEF2000074
:10389000016841F4700101607047000080B542F694
:1038A000EC10C2F20000FFF7E3F880BD10B540F263
:1038B000FF7E0368C4F2000E40F2000C7045C4F2B3
:1038C000010C0ADD40F60002C4F2000290420DD065
:1038D00060450BD040F6004204E0B0F1804F05D0C7
:1038E00040F20042C4F20002904203D14A6823F041
:1038F000700313434FF6FF72C4F20002904209DCDA
:10390000704512DCB0F1804F26D040F20042C4F284
:1039100000021FE044F2FF32C4F2010290420FDCC9
:10392000604519D044F2000212E040F60002C4F2F1
:103930000002904210D040F60042C4F2000209E0BA
:1039400044F60002C4F20102904205D044F2004263
:10395000C4F20102904203D1CA6823F440731343B6
:1039600023F080024B69D1F800E08C681A4360456F
:103970000260C462C0F828E002D10969CCF83010B6
:103980000121416110BD0000D0F808C011432CF4A2
:103990007F4C41EA032141EA0C018160704700003D
:1039A000826822F07002114341F007018160704784
:1039B000D0F820C0036A23F001030362836923F077
:1039C000F00343EA02122CF00A03194382610162F8
:1039D00070470000036A23F0100303628369D0F884
:1039E00020C023F4704343EA02322CF0A00343EAE0
:1039F000011182610162704780B5806B0021C18531
:103A0000C184FFF701F980BD016851E8031F026816
:103A100021F4907142E80313002BF5D1016851E8BD
:103A2000051F026821F0010142E80513002BF5D1C2
:103A3000016B01290AD100BF016851E8031F026828
:103A400021F0100142E80313002BF5D1202180F86A
:103A50003E1000210163704780B50168CA6822F0FA
:103A60004002CA60202180F83D10FFF707FB80BDAF
:103A700080B582B090F83E1022291ED18268B2F53E
:103A8000805F02D10169002948D0816AB2F5805F68
:103A900007D00AB9026922B10268526802F07F02B7
:103AA00001E0026852680A700121826A1144816251
:103AB000C18D01390A04C18501D002B080BD016801
:103AC000CA6822F02002CA60CA6822F48072CA6002
:103AD0004A6922F001024A61202180F83E10016B00
:103AE000012923D100210163016851E8031F026805
:103AF00021F0100142E80313002BF5D101680A6898
:103B0000D20606D5002201920A6801924968019105
:103B10000199818DFFF776F802B080BD0168826A55
:103B200049686FF35F2111800221BEE7FFF722FA97
:103B300002B080BD10B504460068D4E902C2236912
:103B4000016921F4405111430161626943EA0C01AA
:103B5000E3691143C268194349F20C639A43114364
:103B6000C1604169A26921F4407141F200431143EF
:103B700040F48062C4F201039A42416102D1FEF72F
:103B800095FA01E0FEF780FAE16963681922B1F560
:103B9000004FA0FB02011CD15A00DB0FFCF716FB03
:103BA00048F21F51C5F2EB11A0FB01235A096FF037
:103BB000630302FB0300322303EBC000A0FB0101FF
:103BC0004FF4F87000EA111000EB0210C1F342113B
:103BD0001AE09A009B0FFCF7F9FA48F21F51C5F260
:103BE000EB11A0FB01235A096FF0630302FB0300F2
:103BF000322303EB0010A0FB0101F02000EA51107A
:103C000000EB0210C1F3431122680843906010BD1D
:103C100081628285C28500212222016480F83E20D3
:103C2000026880F83C10D06840F48070D060506921
:103C300040F001005061D06840F020010020D160C8
:103C40007047000090F83D10212923D18168B1F51B
:103C5000805F01D1016931B1016A02684B1C0362C6
:103C60000978516007E0016A036831F8022B6FF3AD
:103C70005F225A600162C18C01390A04C18418BFF5
:103C800070470068C16821F08001C160C16841F0DF
:103C90004001C160704700002DE9F0410446006812
:103CA00000680840884202D10020BDE8F0811D462E
:103CB0000E4690465F1C04E0206800683040B04229
:103CC000F2D0002FF8D02DB1FDF784FBA0EB080057
:103CD000A842F1D9206850E8030F216820F4D07081
:103CE00041E80302002AF5D1206850E8050F216859
:103CF00020F0010041E80502002AF5D1202084F8D7
:103D00003D0084F83E00002084F83C000320BDE81C
:103D1000F081000080B542F67C20C2F20000FEF780
:103D200075FF80BD01291DD170B5D0F8BC52044685
:103D300041F6E2302E5CB6FA86F149092954FCF7C7
:103D4000FFFD2046812100F0D5FB41F68A30002E90
:103D500018BF2C352A18204681212C2300F0F2FCB4
:103D6000BDE870400020704701293CD1F0B581B01A
:103D7000D0F8BC62044641F684303718204600F083
:103D8000C1FB0546D4F8C002B988436970180430F5
:103D9000A9B201229847B888284481B2B1F5DC5F06
:103DA000B8800DD1387800250328BD8008D1D4F81B
:103DB000C0024FF45C618368301D012298473D705A
:103DC000787828B9B888B0F55C6F04BF01207870A6
:103DD000B88801213044021D2046582300F00CFC15
:103DE00001B0BDE8F040002070470000B0B50121EF
:103DF000044600F0DFFAD4F8BC020025C4F878517C
:103E000050B1D4F8C002416800208847D4F8BC0201
:103E100000F06CFEC4F8BC520020B0BD10B5D0F864
:103E2000BC1241F6E3328B5C012B0DD18C1894F857
:103E30004210022908D1D0F8C00201696078884791
:103E40000020207084F84100002010BD0020704741
:103E5000014640F25C006422C2F200000A80704712
:103E6000014640F2C0000A22C2F200000A807047F8
:103E700070B5044641F6284000F03AFEF0B1054620
:103E8000C4F8BC022046812101222C23012600F027
:103E9000A7FB20468121268700F02CFB41F6E2306B
:103EA000285C8121002841F68A3018BF58352A182D
:103EB00020462C2300F046FC002070BD0020C4F8F2
:103EC000BC02022070BD0000002070470020704737
:103ED00000290EBF0320C0F8C01200207047000068
:103EE0000020704780B582B00A78002312F060028B
:103EF000ADF806300AD0202A21D14A78012A22D0F2
:103F0000812A24D1FCF736FD002261E04B780B2B8F
:103F100021D8D0F8BCC20022DFE803F0065A1D1DEC
:103F20001D1D211D1D1D343E90F89C22032A3ED1EB
:103F30000DF10601022200F09FF8002248E000F097
:103F400077F8032244E0FCF727FD002240E000F070
:103F50006FF803223CE000F06BF8032238E0CA78E7
:103F60004FF40453B3EB022F25D1CA8840F25C0111
:103F7000C2F200011231092A28BF092200F07CF8A0
:103F8000002225E090F89C22032A16D161460122E6
:103F900000F072F800221BE090F89C22032A10D156
:103FA0008A78012A11D8CCF80020002210E000F015
:103FB0003FF803220CE000220AE000F039F8032267
:103FC00006E000F035F8032202E000F031F80322A9
:103FD000104602B080BD000080B5D0F8B8220AB10A
:103FE00052689047002080BD80B590F89C22013A2D
:103FF000022A09D84988012918BF80BD0021C0F8CC
:10400000A41200F047F880BD00F012F880BD000057
:1040100080B513460A46002100F0EEFA002080BD6C
:1040200080B513460A46002100F08CFB002080BDBD
:1040300010B58021044600F06BFB2046002100F003
:1040400067FB10BD80B513460A460321C0F89412E1
:104050000021C0E9563300F0CFFA002080BD0000F7
:1040600080B50521C0F8941200210022002300F041
:10407000C3FA002080BD000080B513460A46022125
:10408000C0F894120021C0E9063300F05BFB002069
:1040900080BD000080B50421C0F8941200210022E8
:1040A000002300F04FFB002080BD000010B540F25F
:1040B0002414C2F200040A4602A0214600F02AF9A4
:1040C000204610BD415544494F20436F6E666967D5
:1040D0000000000040F2E8001222C2F200000A8054
:1040E0007047000010B540F22414C2F200040A46E2
:1040F00002A0214600F00EF9204610BD415544496A
:104100004F20496E746572666163650040F2FC0081
:104110000422C2F200000A807047000010B540F28D
:104120002414C2F200040A4602A0214600F0F2F86C
:10413000204610BD53544D6963726F656C6563749E
:10414000726F6E696373000010B540F22414C2F2FE
:1041500000040A4602A0214600F0DCF8204610BD0B
:1041600053544D333220417564696F20436C617341
:104170007300000080B51A200880FCF797FC40F21D
:104180000010C2F2000080BD80B5C988012910D19D
:1041900090F89C124A1E022A04D20022014641F8DD
:1041A000082F02E0032904D1011D0122FFF764FF5B
:1041B00080BDFFF73DFF80BDB0B582B004464888A2
:1041C0000D464FF0FF3101EB102100220629ADF81A
:1041D000062054D8DFE801F00414085353212A00C4
:1041E000D4F8B402026841E0C0B2052847D8DFE83D
:1041F00000F003292D313539D4F8B402426834E097
:10420000217CD4F8B80200290CBF816AC16A0DF183
:10421000060088470146022012E0207C78BBD4F8D3
:10422000B802416B0DF10600884723E0207C30BBCB
:10423000D4F8B802016B0DF106008847014607204B
:10424000487018E0D4F8B40282680EE0D4F8B402E2
:10425000C2680AE0D4F8B402026906E0D4F8B402F5
:10426000426902E0D4F8B402826942B1207C0DF1C7
:10427000060190470146002040B102B0B0BD204683
:10428000FFF7D6FE012000210028F6D1EA8862B1AE
:10429000BDF8060070B1904238BF02462046ADF826
:1042A0000620FFF7E9FE02B0B0BD2046FFF7F2FEA0
:1042B00002B0B0BD2046FFF7BBFE02B0B0BD0000AB
:1042C000017849B1411E00208A780130002A01F1AD
:1042D0000101F9D1C0B270470020C0B270470000A0
:1042E00080B590F89C22013A022A0FD8C988022989
:1042F0000CD1D0F8A4120322002908BF01220146E4
:1043000041F80C2F0222FFF7B7FE80BDFFF790FEA9
:1043100080BD000070B5F0B1164605460C46FFF7AB
:10432000CFFF022101EB400030802070032060703D
:104330002878002808BF70BD691E0222002300BF34
:10434000D6B2A05546F001002354887802320028E6
:1043500001F10101F4D170BD032884BF032070472F
:1043600040F20031C000C0F2013121FA00F0C0B2C9
:1043700070470000002804BF0320704780B5002369
:10438000C0F8B832C0F8C0320029C0F8CC3218BF2B
:10439000C0F8B412012180F89C12027000F0B8F845
:1043A00080BD000080B5D0F8C402FDF719F9FFF711
:1043B000D3FF80BD80B5D0F8C402FDF7EBF8FFF75E
:1043C000CBFF80BDB0B5044671B194F89C020328C0
:1043D00049D1D4F8B8024269002A44D02046904717
:1043E000002808BF0020B0BDD4F89402022833D1C1
:1043F000D4E9071081420DD90B1A204611461A46FE
:10440000E361FFF70DFE204600210022002300F0AB
:10441000F3F821E00FD1A16981420CD3D4F89802BE
:10442000814208D22046002100220025FFF7F8FD36
:10443000C4F89852E7E794F89C02032805D1D4F811
:10444000B802C16809B1204688472046802100F0A3
:104450005FF92046FFF704FE94F8A002012804BF8C
:10446000002084F8A0020020B0BD000010B5044672
:1044700069B194F89C0203281CD1D4F8B80282696F
:10448000C2B120469047002808BF002010BDD4F8D4
:10449000940203280ED1D4E9570398420CD9C01ACC
:1044A000C4F85C01984238BF0346204611461A46BC
:1044B000FFF7AEFD002010BD94F89C02032805D143
:1044C000D4F8B802016909B1204688472046FFF7B1
:1044D000E1FD002010BD00000020704780B50121E3
:1044E00080F89C12D0F8B81211B14A68017990474F
:1044F000002080BD80B5D0F8C402FDF7A3F8FFF717
:104500002BFF80BD80B5D0F8C402FDF7B5F880BDA3
:1045100010B5017809B1002010BD42F28C51C2F2F1
:104520000001C1F80404C0F8C4124FF0A0400422F6
:10453000C1E9000202200022C1E90302C1E906022A
:104540000846C1E90822C1E90B22FDF78BFB0028D0
:1045500018BFFCF7A5FA42F28C54C2F200042046C0
:104560008021FCF7C5FF204600214022FCF7C4FF54
:10457000204601218022FCF7BFFF002010BD000073
:10458000D0F8C40201F07F02C2EBC20200EB82004D
:1045900000F13E02090658BF00F5FF72107870471F
:1045A00080B5D0F8B82242B190F89C32032B02D1EA
:1045B000126A02B19047002080BD032080BD000038
:1045C00080B5D0F8B82242B190F89C32032B02D1CA
:1045D000526A02B19047002080BD032080BD0000D8
:1045E00080B59446D0F8C4021A466346FDF74EF8EB
:1045F000FFF7B2FE80BD000080B5D0F8C402FDF721
:1046000075F8FFF7A9FE80BDF0B581B00446012022
:10461000002184F89C02C4F89412D4F8B8026160B6
:10462000C4F8A412E8B1D4F8BC1221B1426812B1A6
:1046300020460021904720460021002240230025EB
:104640004026FFF7CDFF012720468021002240238E
:10465000A4F86471C4F86061FFF7C2FFA784266202
:1046600000E00325284601B0F0BD000090F89C1240
:10467000042904BF90F89D1280F89C120020704716
:1046800080B5D0F8B81241B190F89C22032A02D12B
:10469000C96901B18847002080BD032080BD0000AA
:1046A000024600201174704780B5D0F8C402FDF7AF
:1046B000DDFBFFF751FE80BDB0B500F2AA25044630
:1046C000284600F047F80120C4F8940294F8AA02A2
:1046D000B4F8B02200F01F010229C4F8982207D0D4
:1046E00001290AD071B92046294600F0F9F8B0BD79
:1046F0002046294600F02CF9B0BD2046294600F09E
:10470000C3F9B0BD00F08001204600F001F8B0BD53
:1047100080B5D0F8C402FDF713F8FFF71DFE80BD89
:1047200080B5D0F8C402FDF7BFFBFFF715FE80BDD2
:10473000014690F89C02042281F89D02002081F835
:104740009C22704780B5D0F8C402FDF731F8FFF71E
:1047500003FE80BDB0B50C4609780546017060784F
:104760006870A01CFFF720F86880201DFFF71CF878
:10477000A880A01DFFF718F8E880B0BD10B582B082
:1047800004460020ADF8060059B1CA6AC4F8B81250
:1047900022B10DF106009047C4F8CC02002002B00F
:1047A00010BD032002B010BDB0B58A88044642B9DE
:1047B000C88830B948887F2803D894F89C12032908
:1047C00003D12046FFF734FCB0BD00F07F05204642
:1047D000294684F89E52FFF767FF2046FFF75AFCF0
:1047E000002D14BF0220012084F89C02B0BD0000FF
:1047F00080B5D0F8B82212B11268904780BD03206E
:1048000080BD0000B0B50446488840F22015C2F2D1
:10481000000510F0FE0F287004D02046FFF708FCBA
:104820000320B0BD94F89C22C1B2032A0DD0022A05
:1048300023D191B320466160FFF7DAFF054688B3C4
:104840002046FFF7F5FB2846B0BDF9B16068884205
:1048500023D0C1B22046FFF7BFFB29782046616014
:10486000FFF7C6FF054628B32046FFF7E1FB217995
:104870002046FFF7B1FB022018E02046FFF7D8FBE7
:1048800029782046FFF7A8FB0320B0BD022084F85A
:104890009C0220466160FFF79FFB2046FFF7FAFB72
:1048A0000020B0BD2046FFF7F5FB032084F89C02F2
:1048B0002846B0BD2046FFF7EDFB2846B0BD0000FE
:1048C00080B54988012918BF80BD0121C0F8A41214
:1048D000FFF7E0FB80BD000080B5FFF721FF80BD42
:1048E00080B50A7812F0600208D0402A01D0202A50
:1048F00012D1D0F8B8229268904780BD4A78092A30
:104900000AD8DFE802F0050D091109152009191D63
:10491000FFF7E6FC002080BDFFF78AFB002080BD8A
:10492000FFF762FB002080BDFFF7CAFF002080BDBB
:10493000FFF73AFF002080BDFFF726FC002080BD76
:10494000FFF760FF80BDFFF737FC002080BD00004F
:10495000B0B50D460978044611F060010AD040292F
:1049600001D0202970D1D4F8B802294682682046A7
:104970009047B0BD68782979B0B1012833D00328B9
:1049800062D194F89C02032831D1688840B941F083
:104990008000802804D0E88810B92046FFF7B8FED0
:1049A0002046FFF777FB52E094F89C0203282CD0B6
:1049B000022849D141F08000802845D101F07F00D4
:1049C00000EB800004EB800000F11402090658BFE0
:1049D00000F5AA7200251560204611460222FFF755
:1049E0004BFB2846B0BD94F89C02032832D0022825
:1049F0002AD141F08000802826D02046FFF788FE8B
:104A000020468021FFF784FE21E001F00F0202EB37
:104A1000820211F0800004EB82020CBFB2F8642124
:104A2000928C8AB101F07F0202EB820204EB8202D7
:104A300002F5AA75002841F0800018BF02F11405A4
:104A4000802813D1002017E02046FFF7F1FA002557
:104A50002846B0BD68880028F9D1480602D0204613
:104A6000FFF7A0FC2046FFF715FB7CE72046FFF789
:104A700087FD0028E6D00120286020462946022232
:104A8000FFF7FAFAE3E7000070B50D46097804462F
:104A900011F0600118BF40290ED194F89C02013832
:104AA000022803D8A88810F0FE0F0DD02046FFF78B
:104AB000BFFA0026304670BD2029EED02046FFF711
:104AC000B7FA0026304670BDD4F8B802294682688D
:104AD0002046904706460028F4D1E8880028F1D106
:104AE0002046FFF7D7FA304670BD0000704700003F
:104AF00040F22430C2F200007047000080B591F807
:104B000000C04B780CF00F024FF0010E012B0EFA93
:104B100002F31DD1D0F81C281A43C0F81C2800F558
:104B200010604FEA4C13C25812042CD48A6891F8D2
:104B300003E06FF3DF22195842EA8C52114341EA35
:104B40008E4141F0805141F400411950002080BD58
:104B5000D0F81C2842EA0342C0F81C2800F5306057
:104B60004FEA4C1283581B040DD48B6891F803C094
:104B700011586FF3DF23194341EA8C4141F0805112
:104B800041F400411150002080BD00000146D0F8E2
:104B9000000940F2FF729043C1F80009D1F80408FF
:104BA00040F480720020C1F80428704770B506995F
:104BB000049D0129044619D1A06B4FF6BF7120F462
:104BC0008030A063E068CFF6BD710840E060E06827
:104BD0000D9920F440100129E06003D1E06840F411
:104BE0008010E060204600F01DF80FE0E0680A9EAB
:104BF00040F04000E060204600F014F8A16B002E69
:104C000014BF21F4803141F48031A163012D18BF1C
:104C100070BDA16841F00601A160A16841F02001CA
:104C2000A16070BD81B040F64051C0F20301002286
:104C3000009200BF009A01328A42009215D80269A0
:104C4000B2F1FF3FF6DC00220092026942F001025D
:104C5000026100BF009A01328A42009205D80269BF
:104C6000D207F7D1002001B07047032001B0704790
:104C70004A780B7847F6000C012ACEF6334C17D150
:104C800000EB4312D2F8001902F51062B1F1FF3FB8
:104C900007DC116841F000611160116841F080414A
:104CA000116003F00F01012303FA01F18BB217E049
:104CB00000EB4311D1F8002BB2F1FF3F01F5306258
:104CC00007DC116841F000611160116841F080411A
:104CD000116003F00F014FF480338B400CF1707CB6
:104CE000D0F83C189943C0F83C18D0F81C189943E8
:104CF000C0F81C18106800EA0C0100201160704711
:104D00000146D0F8000E20F00300C1F8000ED1F8E3
:104D1000040820F002020020C1F8042870470000B7
:104D20000146D0F8000E20F00300C1F8000ED1F8C3
:104D3000040840F002020020C1F804287047000077
:104D40002DE9F04F81B00446DDF844A0DDE90C0800
:104D5000DDF828900D464121002200BF44F82120B3
:104D600001315029FAD1BAF1000F07D0A16B21F41B
:104D70000011A163A16B41F4002110E0D4F80418E4
:104D800041F00201C4F80418A16B41F40011A163C1
:104D9000A16B21F40021A163A16B21F480214FF0CC
:104DA000000BA163C4F800BED4F80018002BC4F8AF
:104DB000001818BF0123012818BF032320461946F5
:104DC00000F026FB2046102100F05EFA0646204641
:104DD00000F042FA304318BF0120C4F810B8C4F8FC
:104DE00014B8C4F81CB88DB304F510614FF67F32C7
:104DF000002300BF0E684FF09047002B08BF4FF014
:104E0000006707EAE67701330F60C1F810B08A60E7
:104E10009D4201F12001EDD104F530614FF0000C0D
:104E20004FF67F33002600BF0F684FF09042002EF0
:104E300008BF4FF0006202EAE77201360A60C1F86B
:104E400010C08B60B54201F12001EDD1D4F81018EB
:104E5000B9F1000F21F48071C4F810186FF080418F
:104E6000C4F818B0616103D1A16941F01001A161DA
:104E7000A16943F60002C8F23C021143B8F1000FE9
:104E8000A16103D0A16941F00801A161BAF1010F4C
:104E900005D1A16941F0804141F00401A16101B057
:104EA000BDE8F08F0146806820F0010200208A6092
:104EB0007047000070B54B7891F800C0012B23D1EA
:104EC0004D6900EB4C1300244FF6FF7ED3F81069B8
:104ED000CFF6F874CEF2070E03F51063E5B3344055
:104EE0001C611C690EF1005604EA0E041C618C68FA
:104EF000A54288BF4C611C6944F400241C614C69C4
:104F00001D692640354331E000EB4C13D3F8100BFC
:104F10006FF31200C3F8100BD3F8100B6FF3DC40E3
:104F2000C3F8100B4E6903F53063002E1CBF8E686A
:104F30004E611E694FF6FF7046F400261E61CEF2E8
:104F400007008E6800F100501D6930402843012A97
:104F5000186112D1C8680DE006EA0E061E611E69CE
:104F600046F400261E611E6906EA0405012A1D6139
:104F70000AD10869002818BF58614FF00441186829
:104F800008431860002070BD1A6842F004421A609D
:104F900049690029F6D00CF00F01012202FA01F153
:104FA00000F63403EBE70000D0F840C043F20B03F7
:104FB000C4F654739C4503D3D0F8003B002B1ED499
:104FC0000023C0F8103BD0F8103B012943F4002324
:104FD000C0F8103BD0F8103B43F01803C0F8103B6A
:104FE000D0F8103B43F0C043C0F8103B07D1C0F8E5
:104FF000142BD0F8001B41F08021C0F8001B0020CA
:10500000704700004B780A78012B11D100F5106031
:105010005201835823F400138350C97801F0FE0134
:10502000022915D1115841F08051115000207047CC
:1050300000F530605201835823F400138350C9787F
:1050400001F0FE01022903D1115841F080511150A5
:10505000002070474A780978012A0ED100EB4112EE
:10506000D2F80009002902F5106114D0002812D4EA
:10507000086820F0804008600DE000EB4112D2F893
:10508000000B002902F5306105D0002803D4086820
:1050900020F080400860086840F4001200200A6098
:1050A0007047000070B582B04B7894460A78012BA7
:1050B00030D1D1F814E000EB4213D3F81049BEF11F
:1050C000000F03F510634AD06FF312041C611C69D2
:1050D0006FF3DC441C618C681E690EEB0405013D16
:1050E000B5FBF4F40025C1F6F87505EAC444344371
:1050F0001C6174461D696FF3DF442C431C61CC783E
:10510000012C37D11C6924F0C0441C611C6944F097
:1051100000542EE000EB4212D2F8103B6FF3120362
:10512000C2F8103BD2F8103B6FF3DC43C2F8103BDF
:105130004C698B68002C02F530624FD0E618013EB6
:10514000B6FBF3F60025C1F6F87505EAC645146905
:10515000B6B2734325436FF3DF43156145E06FF348
:10516000DC441C611C6944F400241C611C696FF35D
:1051700012041C61BCF1010F16D10A69002A18BF84
:105180005A61C97801290AD1D0F808081968C00500
:105190004FF0805058BF4FF0005008431860186817
:1051A00040F0044018603DE01C6844F004441C607A
:1051B000CC78012C39D1D0F808481D68E4054FF0AF
:1051C000805458BF4FF000542C431C60C9681FFA2C
:1051D0008EF3CDF800C000F0AFF923E016696FF34D
:1051E000DF43334313614FF400231669BCF1010F11
:1051F00043EA0603136103D1CB68002B18BF536148
:10520000C97801290AD1D0F808081168C0054FF003
:10521000805058BF4FF0005008431060106840F0B5
:1052200004401060002002B070BDBEF1000FF9D044
:1052300002F00F010122D0F8343802FA01F11943CB
:10524000C0F83418EEE700000146806840F0010223
:1052500000208A607047000081B000210091102179
:10526000016140F64051C0F2030100BF009A0132D3
:105270008A42009205D80269D206F7D4002001B014
:105280007047032001B0704781B0890100222031AE
:105290000092016140F64051C0F20301009A0132D0
:1052A0008A42009205D802699206F7D4002001B024
:1052B0007047032001B07047D0F8080800F00601DD
:1052C00041F004020F20062A08BF0220002908BF6F
:1052D00008467047406900F001007047D0F8181880
:1052E000D0F81C08084080B270470000D0F81818A9
:1052F000D0F81C080840000C70470000D0F810C817
:10530000D0F8343801F00F0223FA02F2D20100EB98
:105310004110D2B2D0F8080942EA0C0108407047A7
:1053200000EB4111D1F8081BD0F814080840704771
:10533000416980690840704780B50023B3EB920F44
:1053400002F003030BD0920804394FF4805C00BFD5
:1053500050F80CE0013A41F804EFF9D1043173B18F
:105360004FF4805250F802C0002200BF2CFA02F025
:10537000013B01F8010B180402F10802F6D10846BE
:1053800080BD000070B50446C06820F0C040E060F9
:1053900099B1012928D1E068002540F00050E06073
:1053A00001202E46FBF728FF20460135FFF792FF2C
:1053B000302E13D80128F3D110E0E068002540F02A
:1053C0008040E06001202E46FBF716FF20460135A5
:1053D000FFF780FF302E01D80028F3D1A5F132006D
:1053E000B0FA80F0400970BD012070BD0246D0F8CF
:1053F000000801F07F0120F4FE60C2F80008D2F836
:10540000000840EA01110020C2F8001870470000AF
:105410000246D0F8000801430020C2F80018704787
:10542000022A02460DD145F24030CFF6277043F2F2
:1054300000530844C0F20C0398420DD24FF4705050
:1054400001E04FF41050D16821F47051D160D1685F
:1054500001430020D160704741F64060CFF61B70D9
:1054600044F240230844C0F20F03984202D24FF4A2
:105470006050E8E7A1F5740044F68073A0F5105081
:10548000C0F21203984202D24FF45050DBE7A1F170
:1054900083704DF22063A0F5E740C0F213039842F9
:1054A00002D24FF44050CEE74BF26060CFF6E56099
:1054B0004EF260330844C0F21603984202D24FF411
:1054C0003050C0E74DF20030CFF6CE6047F2407367
:1054D0000844C0F21B03984202D24FF42050B2E7B6
:1054E00045F6C030CFF6B36049F2C0130844C0F2AD
:1054F0002103984202D24FF41050A4E7A1F1B770F3
:1055000047F22053A0F55850C0F23803984202D217
:105510004FF4005097E745F2E040CFF6596049F666
:10552000E0430144C0F241034FF4C050994238BFF8
:105530004FF4E05087E70000DDF800C0BCF1000F39
:1055400012D103F1030C0023B3EB9C0F0CD04FEAF4
:105550009C0300F5805C1203043900BF51F8040F6E
:10556000013B42F80C00F9D100207047FEE7000033
:1055700080B542F6C42045F29951C2F20000C0F64F
:105580000001816642F65031C2F200014FF4007210
:1055900000F05CFD80BD000080B582B08DF8070092
:1055A00042F67C20C2F200000DF1070101224FF605
:1055B000FF73FDF7FDFC02B080BD0000002848BF6E
:1055C000704700F01F01012202FA01F14EF20012B1
:1055D0004009CEF2000242F8201070474EF60C50FF
:1055E000CEF200000068C0F3022070474EF614535C
:1055F00000F00F02CEF2000309011A4400F16043EB
:10560000B0F1FF3FC8BF03F564421170704700005E
:105610004EF60C51CEF200010A684FF6FF031A4015
:1056200060F30A2242F0806040F0FD70086070472D
:1056300080B582B0019042F67C20C2F2000001A940
:1056400001224FF6FF73FDF7B3FC019802B080BD55
:1056500080B502A003F056F880BD00BF68656C6C91
:105660006F206C6574746572207368656C6C2100C2
:10567000FBF7C4FEFEF7B6F8FDF776FDFDF78EFEEC
:10568000FDF7A8FEFDF7ECFDFDF752FDFDF716FD59
:10569000FDF708FEFDF744FE42F6EC10C2F20000F2
:1056A000FDF732F942F63420C2F20000FDF7EEF8C1
:1056B000FFF75EFF42F67C2042F6C021C2F20000F6
:1056C000C2F200010122FDF739FC42F65464C2F235
:1056D000000448F6E01147F6052247F67D53C0F670
:1056E0000001C0F60002C0F60003204601F0FAFCFB
:1056F000204602F033F92046002102F03FF948F637
:10570000EC11C0F60001204601F0AAFC40F2004472
:10571000C4F2020420464FF40041FBF74DFEC820BE
:10572000FBF76AFDF6E7000000EB40003F21A1EB2C
:105730009020C0B27047000042F63C3C0022C2F20A
:10574000000C00BF13B25CF8231031B193B2032BED
:1057500002F1010288BF7047F4E74CF8230070475C
:1057600080B5012100F074F880BD000010B501681B
:10577000044600698968FAF773FD08B108A109E0D9
:1057800094F8600048F6690140F00100C0F600019D
:1057900084F86000204601F069FA0020E06010BD46
:1057A0000D0A70617373776F7264206572726F7225
:1057B0000D0A00008A78098841EA02410A0608D0E9
:1057C00001F47062B2F5006F03D0026812781142E2
:1057D00009D090F86000C00712BF0020C1F300306C
:1057E000013840B27047FF2040B2704780B500F0EA
:1057F000B1FA002808BF80BD48F6D111C0F60001FB
:1058000001F034FA80BD0000B0B504468089E1891A
:10581000401A05B2012D07DB2046202101F076F960
:1058200028B2013D0128F7DC217B204600F078F802
:10583000B0BD000080B500F08DFA002818BF00F060
:10584000C3FC80BD80B54FF0FF3100F001F880BD92
:10585000B0B5C2890446012908BF002A52D0A389E5
:1058600011F1010C08BF9A424CD0012908BF9A429D
:1058700049D0A289E189BCFA8CF35D09531AAB4285
:105880000DDD2B4622692944555C114401F8015C69
:10589000A289E18901331DB2501AA842F2DC013A13
:1058A000BCF1000FA28105D0481EE08120460821EE
:1058B00001F02CF92069A18900224254B4F90E00AC
:1058C000A18988420ADA85B22169095C204601F083
:1058D0001DF90135A18928B28842F5DB2046202137
:1058E00001F014F9A089E189401A013005B2012DB7
:1058F000B8BFB0BD2046082101F008F9681E05B206
:10590000002DF7DCB0BD501EE081581E2169A0813A
:1059100080B200220A542046012100F001F8B0BDF7
:1059200070B5002908BF70BD0C46054604A600BF2F
:1059300028463146013C01F099F92006F8D170BDA6
:105940000820080080B54FF0FF3100F0FBFA80BD61
:1059500010B5044600F004F8204601F00DF910BD22
:10596000B0B50446808948B1216900250D5494F8EA
:105970006000C00703D12046FFF7F8FEB0BD204607
:1059800000F02EFB204600F05FFDE08EE560002871
:1059900008BFB0BD48F6BF11C0F60001204601F0B7
:1059A00065F96169A26D2046002300F023FE20B155
:1059B0000146204600F0CEFDB0BD48F63401C0F6E9
:1059C0000001204601F052F9B0BD00000146007808
:1059D00030280FD14A7842F02002782A01D10320E2
:1059E0000DE0302806D14A7842F02002622A01D127
:1059F000012004E03038B0FA80F0400940000A7815
:105A0000002A08BF7047013103E000BF11F8012BE5
:105A100042B10A782E2AF9D14A78002A1CBF042004
:105A20007047F3E770470000014640785C2818BFD4
:105A300070478978A1F16202122A0ED80820DFE8A7
:105A400002F01110101010101010101010100A1089
:105A50001010121014000A207047302904BF0020D3
:105A60007047084670470D207047092070470000B6
:105A70002DE9F04381B00546007801262D38B0FAB3
:105A800080F04FEA501405EB040008BF4FF0FF36DA
:105A9000FFF79CFF81460138C1B2022907D840B206
:105AA0001FA151F8208021A151F8200002E0002020
:105AB0004FF00A082844044400250027013400BFA1
:105AC00014F8010C2E2803D101340127F8E700BF98
:105AD00038B100F001F905FB080507EB8700470026
